{
  "_format": "hh-sol-artifact-1",
  "contractName": "MIKONFT721",
  "sourceName": "contracts/ERC721.sol",
  "abi": [
    {
      "inputs": [],
      "stateMutability": "nonpayable",
      "type": "constructor"
    },
    {
      "anonymous": false,
      "inputs": [
        {
          "indexed": true,
          "internalType": "address",
          "name": "owner",
          "type": "address"
        },
        {
          "indexed": true,
          "internalType": "address",
          "name": "approved",
          "type": "address"
        },
        {
          "indexed": true,
          "internalType": "uint256",
          "name": "tokenId",
          "type": "uint256"
        }
      ],
      "name": "Approval",
      "type": "event"
    },
    {
      "anonymous": false,
      "inputs": [
        {
          "indexed": true,
          "internalType": "address",
          "name": "owner",
          "type": "address"
        },
        {
          "indexed": true,
          "internalType": "address",
          "name": "operator",
          "type": "address"
        },
        {
          "indexed": false,
          "internalType": "bool",
          "name": "approved",
          "type": "bool"
        }
      ],
      "name": "ApprovalForAll",
      "type": "event"
    },
    {
      "anonymous": false,
      "inputs": [
        {
          "indexed": false,
          "internalType": "address",
          "name": "account",
          "type": "address"
        }
      ],
      "name": "Paused",
      "type": "event"
    },
    {
      "anonymous": false,
      "inputs": [
        {
          "indexed": true,
          "internalType": "bytes32",
          "name": "role",
          "type": "bytes32"
        },
        {
          "indexed": true,
          "internalType": "bytes32",
          "name": "previousAdminRole",
          "type": "bytes32"
        },
        {
          "indexed": true,
          "internalType": "bytes32",
          "name": "newAdminRole",
          "type": "bytes32"
        }
      ],
      "name": "RoleAdminChanged",
      "type": "event"
    },
    {
      "anonymous": false,
      "inputs": [
        {
          "indexed": true,
          "internalType": "bytes32",
          "name": "role",
          "type": "bytes32"
        },
        {
          "indexed": true,
          "internalType": "address",
          "name": "account",
          "type": "address"
        },
        {
          "indexed": true,
          "internalType": "address",
          "name": "sender",
          "type": "address"
        }
      ],
      "name": "RoleGranted",
      "type": "event"
    },
    {
      "anonymous": false,
      "inputs": [
        {
          "indexed": true,
          "internalType": "bytes32",
          "name": "role",
          "type": "bytes32"
        },
        {
          "indexed": true,
          "internalType": "address",
          "name": "account",
          "type": "address"
        },
        {
          "indexed": true,
          "internalType": "address",
          "name": "sender",
          "type": "address"
        }
      ],
      "name": "RoleRevoked",
      "type": "event"
    },
    {
      "anonymous": false,
      "inputs": [
        {
          "indexed": true,
          "internalType": "address",
          "name": "from",
          "type": "address"
        },
        {
          "indexed": true,
          "internalType": "address",
          "name": "to",
          "type": "address"
        },
        {
          "indexed": true,
          "internalType": "uint256",
          "name": "tokenId",
          "type": "uint256"
        }
      ],
      "name": "Transfer",
      "type": "event"
    },
    {
      "anonymous": false,
      "inputs": [
        {
          "indexed": false,
          "internalType": "address",
          "name": "account",
          "type": "address"
        }
      ],
      "name": "Unpaused",
      "type": "event"
    },
    {
      "inputs": [],
      "name": "DEFAULT_ADMIN_ROLE",
      "outputs": [
        {
          "internalType": "bytes32",
          "name": "",
          "type": "bytes32"
        }
      ],
      "stateMutability": "view",
      "type": "function"
    },
    {
      "inputs": [],
      "name": "MINTER_ROLE",
      "outputs": [
        {
          "internalType": "bytes32",
          "name": "",
          "type": "bytes32"
        }
      ],
      "stateMutability": "view",
      "type": "function"
    },
    {
      "inputs": [],
      "name": "PAUSER_ROLE",
      "outputs": [
        {
          "internalType": "bytes32",
          "name": "",
          "type": "bytes32"
        }
      ],
      "stateMutability": "view",
      "type": "function"
    },
    {
      "inputs": [
        {
          "internalType": "address",
          "name": "to",
          "type": "address"
        },
        {
          "internalType": "uint256",
          "name": "tokenId",
          "type": "uint256"
        }
      ],
      "name": "approve",
      "outputs": [],
      "stateMutability": "nonpayable",
      "type": "function"
    },
    {
      "inputs": [
        {
          "internalType": "address",
          "name": "owner",
          "type": "address"
        }
      ],
      "name": "balanceOf",
      "outputs": [
        {
          "internalType": "uint256",
          "name": "",
          "type": "uint256"
        }
      ],
      "stateMutability": "view",
      "type": "function"
    },
    {
      "inputs": [
        {
          "internalType": "uint256",
          "name": "tokenId",
          "type": "uint256"
        }
      ],
      "name": "burn",
      "outputs": [],
      "stateMutability": "nonpayable",
      "type": "function"
    },
    {
      "inputs": [
        {
          "internalType": "uint256",
          "name": "tokenId",
          "type": "uint256"
        }
      ],
      "name": "getApproved",
      "outputs": [
        {
          "internalType": "address",
          "name": "",
          "type": "address"
        }
      ],
      "stateMutability": "view",
      "type": "function"
    },
    {
      "inputs": [
        {
          "internalType": "bytes32",
          "name": "role",
          "type": "bytes32"
        }
      ],
      "name": "getRoleAdmin",
      "outputs": [
        {
          "internalType": "bytes32",
          "name": "",
          "type": "bytes32"
        }
      ],
      "stateMutability": "view",
      "type": "function"
    },
    {
      "inputs": [
        {
          "internalType": "bytes32",
          "name": "role",
          "type": "bytes32"
        },
        {
          "internalType": "address",
          "name": "account",
          "type": "address"
        }
      ],
      "name": "grantRole",
      "outputs": [],
      "stateMutability": "nonpayable",
      "type": "function"
    },
    {
      "inputs": [
        {
          "internalType": "bytes32",
          "name": "role",
          "type": "bytes32"
        },
        {
          "internalType": "address",
          "name": "account",
          "type": "address"
        }
      ],
      "name": "hasRole",
      "outputs": [
        {
          "internalType": "bool",
          "name": "",
          "type": "bool"
        }
      ],
      "stateMutability": "view",
      "type": "function"
    },
    {
      "inputs": [
        {
          "internalType": "address",
          "name": "owner",
          "type": "address"
        },
        {
          "internalType": "address",
          "name": "operator",
          "type": "address"
        }
      ],
      "name": "isApprovedForAll",
      "outputs": [
        {
          "internalType": "bool",
          "name": "",
          "type": "bool"
        }
      ],
      "stateMutability": "view",
      "type": "function"
    },
    {
      "inputs": [],
      "name": "name",
      "outputs": [
        {
          "internalType": "string",
          "name": "",
          "type": "string"
        }
      ],
      "stateMutability": "view",
      "type": "function"
    },
    {
      "inputs": [
        {
          "internalType": "uint256",
          "name": "tokenId",
          "type": "uint256"
        }
      ],
      "name": "ownerOf",
      "outputs": [
        {
          "internalType": "address",
          "name": "",
          "type": "address"
        }
      ],
      "stateMutability": "view",
      "type": "function"
    },
    {
      "inputs": [],
      "name": "pause",
      "outputs": [],
      "stateMutability": "nonpayable",
      "type": "function"
    },
    {
      "inputs": [],
      "name": "paused",
      "outputs": [
        {
          "internalType": "bool",
          "name": "",
          "type": "bool"
        }
      ],
      "stateMutability": "view",
      "type": "function"
    },
    {
      "inputs": [
        {
          "internalType": "bytes32",
          "name": "role",
          "type": "bytes32"
        },
        {
          "internalType": "address",
          "name": "account",
          "type": "address"
        }
      ],
      "name": "renounceRole",
      "outputs": [],
      "stateMutability": "nonpayable",
      "type": "function"
    },
    {
      "inputs": [
        {
          "internalType": "bytes32",
          "name": "role",
          "type": "bytes32"
        },
        {
          "internalType": "address",
          "name": "account",
          "type": "address"
        }
      ],
      "name": "revokeRole",
      "outputs": [],
      "stateMutability": "nonpayable",
      "type": "function"
    },
    {
      "inputs": [
        {
          "internalType": "uint256",
          "name": "tokenId",
          "type": "uint256"
        },
        {
          "internalType": "uint256",
          "name": "salePrice",
          "type": "uint256"
        }
      ],
      "name": "royaltyInfo",
      "outputs": [
        {
          "internalType": "address",
          "name": "receiver",
          "type": "address"
        },
        {
          "internalType": "uint256",
          "name": "royaltyAmount",
          "type": "uint256"
        }
      ],
      "stateMutability": "view",
      "type": "function"
    },
    {
      "inputs": [
        {
          "internalType": "address",
          "name": "to",
          "type": "address"
        },
        {
          "internalType": "string",
          "name": "uri",
          "type": "string"
        }
      ],
      "name": "safeMint",
      "outputs": [],
      "stateMutability": "nonpayable",
      "type": "function"
    },
    {
      "inputs": [
        {
          "internalType": "address",
          "name": "from",
          "type": "address"
        },
        {
          "internalType": "address",
          "name": "to",
          "type": "address"
        },
        {
          "internalType": "uint256",
          "name": "tokenId",
          "type": "uint256"
        }
      ],
      "name": "safeTransferFrom",
      "outputs": [],
      "stateMutability": "nonpayable",
      "type": "function"
    },
    {
      "inputs": [
        {
          "internalType": "address",
          "name": "from",
          "type": "address"
        },
        {
          "internalType": "address",
          "name": "to",
          "type": "address"
        },
        {
          "internalType": "uint256",
          "name": "tokenId",
          "type": "uint256"
        },
        {
          "internalType": "bytes",
          "name": "_data",
          "type": "bytes"
        }
      ],
      "name": "safeTransferFrom",
      "outputs": [],
      "stateMutability": "nonpayable",
      "type": "function"
    },
    {
      "inputs": [
        {
          "internalType": "address",
          "name": "operator",
          "type": "address"
        },
        {
          "internalType": "bool",
          "name": "approved",
          "type": "bool"
        }
      ],
      "name": "setApprovalForAll",
      "outputs": [],
      "stateMutability": "nonpayable",
      "type": "function"
    },
    {
      "inputs": [
        {
          "internalType": "address",
          "name": "newRecipient",
          "type": "address"
        }
      ],
      "name": "setRoyalties",
      "outputs": [],
      "stateMutability": "nonpayable",
      "type": "function"
    },
    {
      "inputs": [
        {
          "internalType": "bytes4",
          "name": "interfaceId",
          "type": "bytes4"
        }
      ],
      "name": "supportsInterface",
      "outputs": [
        {
          "internalType": "bool",
          "name": "",
          "type": "bool"
        }
      ],
      "stateMutability": "view",
      "type": "function"
    },
    {
      "inputs": [],
      "name": "symbol",
      "outputs": [
        {
          "internalType": "string",
          "name": "",
          "type": "string"
        }
      ],
      "stateMutability": "view",
      "type": "function"
    },
    {
      "inputs": [
        {
          "internalType": "uint256",
          "name": "index",
          "type": "uint256"
        }
      ],
      "name": "tokenByIndex",
      "outputs": [
        {
          "internalType": "uint256",
          "name": "",
          "type": "uint256"
        }
      ],
      "stateMutability": "view",
      "type": "function"
    },
    {
      "inputs": [
        {
          "internalType": "address",
          "name": "owner",
          "type": "address"
        },
        {
          "internalType": "uint256",
          "name": "index",
          "type": "uint256"
        }
      ],
      "name": "tokenOfOwnerByIndex",
      "outputs": [
        {
          "internalType": "uint256",
          "name": "",
          "type": "uint256"
        }
      ],
      "stateMutability": "view",
      "type": "function"
    },
    {
      "inputs": [
        {
          "internalType": "uint256",
          "name": "tokenId",
          "type": "uint256"
        }
      ],
      "name": "tokenURI",
      "outputs": [
        {
          "internalType": "string",
          "name": "",
          "type": "string"
        }
      ],
      "stateMutability": "view",
      "type": "function"
    },
    {
      "inputs": [],
      "name": "totalSupply",
      "outputs": [
        {
          "internalType": "uint256",
          "name": "",
          "type": "uint256"
        }
      ],
      "stateMutability": "view",
      "type": "function"
    },
    {
      "inputs": [
        {
          "internalType": "address",
          "name": "from",
          "type": "address"
        },
        {
          "internalType": "address",
          "name": "to",
          "type": "address"
        },
        {
          "internalType": "uint256",
          "name": "tokenId",
          "type": "uint256"
        }
      ],
      "name": "transferFrom",
      "outputs": [],
      "stateMutability": "nonpayable",
      "type": "function"
    },
    {
      "inputs": [],
      "name": "unpause",
      "outputs": [],
      "stateMutability": "nonpayable",
      "type": "function"
    }
  ],
  "bytecode": "0x60806040523480156200001157600080fd5b506040518060400160405280600a81526020017f4d494b4f4e4654373231000000000000000000000000000000000000000000008152506040518060400160405280600481526020017f4d494b4f00000000000000000000000000000000000000000000000000000000815250816000908051906020019062000096929190620002b1565b508060019080519060200190620000af929190620002b1565b5050506000600b60006101000a81548160ff021916908315150217905550620000e26000801b336200014c60201b60201c565b620001147f65d7a28e3265b37a6474929f336521b332c1681b933f6cb9f3376673440d862a336200014c60201b60201c565b620001467f9f2df0fed2c77648de5860a4cc508cd0818c85b8b8a1ab4ceeef8d981c8956a6336200014c60201b60201c565b620003c6565b6200015e82826200023e60201b60201c565b6200023a576001600c600084815260200190815260200160002060000160008373ffffffffffffffffffffffffffffffffffffffff1673ffffffffffffffffffffffffffffffffffffffff16815260200190815260200160002060006101000a81548160ff021916908315150217905550620001df620002a960201b60201c565b73ffffffffffffffffffffffffffffffffffffffff168173ffffffffffffffffffffffffffffffffffffffff16837f2f8788117e7eff1d82e926ec794901d17c78024a50270940304540a733656f0d60405160405180910390a45b5050565b6000600c600084815260200190815260200160002060000160008373ffffffffffffffffffffffffffffffffffffffff1673ffffffffffffffffffffffffffffffffffffffff16815260200190815260200160002060009054906101000a900460ff16905092915050565b600033905090565b828054620002bf9062000361565b90600052602060002090601f016020900481019282620002e357600085556200032f565b82601f10620002fe57805160ff19168380011785556200032f565b828001600101855582156200032f579182015b828111156200032e57825182559160200191906001019062000311565b5b5090506200033e919062000342565b5090565b5b808211156200035d57600081600090555060010162000343565b5090565b600060028204905060018216806200037a57607f821691505b6020821081141562000391576200039062000397565b5b50919050565b7f4e487b7100000000000000000000000000000000000000000000000000000000600052602260045260246000fd5b61484880620003d66000396000f3fe608060405234801561001057600080fd5b50600436106101e55760003560e01c80634f6ccce71161010f578063a22cb465116100a2578063d539139311610071578063d53913931461058d578063d547741f146105ab578063e63ab1e9146105c7578063e985e9c5146105e5576101e5565b8063a22cb46514610509578063b88d4fde14610525578063c87b56dd14610541578063d204c45e14610571576101e5565b80638456cb59116100de5780638456cb591461049357806391d148541461049d57806395d89b41146104cd578063a217fddf146104eb576101e5565b80634f6ccce7146103e55780635c975abb146104155780636352211e1461043357806370a0823114610463576101e5565b80632a55205a1161018757806336568abe1161015657806336568abe146103875780633f4ba83a146103a357806342842e0e146103ad57806342966c68146103c9576101e5565b80632a55205a146102ee5780632a9e63c61461031f5780632f2ff15d1461033b5780632f745c5914610357576101e5565b8063095ea7b3116101c3578063095ea7b31461026857806318160ddd1461028457806323b872dd146102a2578063248a9ca3146102be576101e5565b806301ffc9a7146101ea57806306fdde031461021a578063081812fc14610238575b600080fd5b61020460048036038101906101ff919061324f565b610615565b6040516102119190613871565b60405180910390f35b610222610627565b60405161022f91906138a7565b60405180910390f35b610252600480360381019061024d91906132a9565b6106b9565b60405161025f91906137e1565b60405180910390f35b610282600480360381019061027d91906131a2565b61073e565b005b61028c610856565b6040516102999190613bc9565b60405180910390f35b6102bc60048036038101906102b79190613030565b610863565b005b6102d860048036038101906102d391906131e2565b6108c3565b6040516102e5919061388c565b60405180910390f35b610308600480360381019061030391906132d6565b6108e3565b604051610316929190613848565b60405180910390f35b61033960048036038101906103349190612fc3565b61092e565b005b6103556004803603810190610350919061320f565b610948565b005b610371600480360381019061036c91906131a2565b610969565b60405161037e9190613bc9565b60405180910390f35b6103a1600480360381019061039c919061320f565b610a0e565b005b6103ab610a91565b005b6103c760048036038101906103c29190613030565b610ac6565b005b6103e360048036038101906103de91906132a9565b610ae6565b005b6103ff60048036038101906103fa91906132a9565b610b42565b60405161040c9190613bc9565b60405180910390f35b61041d610bb3565b60405161042a9190613871565b60405180910390f35b61044d600480360381019061044891906132a9565b610bca565b60405161045a91906137e1565b60405180910390f35b61047d60048036038101906104789190612fc3565b610c7c565b60405161048a9190613bc9565b60405180910390f35b61049b610d34565b005b6104b760048036038101906104b2919061320f565b610d69565b6040516104c49190613871565b60405180910390f35b6104d5610dd4565b6040516104e291906138a7565b60405180910390f35b6104f3610e66565b604051610500919061388c565b60405180910390f35b610523600480360381019061051e9190613106565b610e6d565b005b61053f600480360381019061053a9190613083565b610e83565b005b61055b600480360381019061055691906132a9565b610ee5565b60405161056891906138a7565b60405180910390f35b61058b60048036038101906105869190613146565b610ef7565b005b610595610f53565b6040516105a2919061388c565b60405180910390f35b6105c560048036038101906105c0919061320f565b610f77565b005b6105cf610f98565b6040516105dc919061388c565b60405180910390f35b6105ff60048036038101906105fa9190612ff0565b610fbc565b60405161060c9190613871565b60405180910390f35b600061062082611050565b9050919050565b60606000805461063690613ead565b80601f016020809104026020016040519081016040528092919081815260200182805461066290613ead565b80156106af5780601f10610684576101008083540402835291602001916106af565b820191906000526020600020905b81548152906001019060200180831161069257829003601f168201915b5050505050905090565b60006106c4826110ca565b610703576040517f08c379a00000000000000000000000000000000000000000000000000000000081526004016106fa90613ac9565b60405180910390fd5b6004600083815260200190815260200160002060009054906101000a900473ffffffffffffffffffffffffffffffffffffffff169050919050565b600061074982610bca565b90508073ffffffffffffffffffffffffffffffffffffffff168373ffffffffffffffffffffffffffffffffffffffff1614156107ba576040517f08c379a00000000000000000000000000000000000000000000000000000000081526004016107b190613b09565b60405180910390fd5b8073ffffffffffffffffffffffffffffffffffffffff166107d9611136565b73ffffffffffffffffffffffffffffffffffffffff161480610808575061080781610802611136565b610fbc565b5b610847576040517f08c379a000000000000000000000000000000000000000000000000000000000815260040161083e90613a09565b60405180910390fd5b610851838361113e565b505050565b6000600880549050905090565b61087461086e611136565b826111f7565b6108b3576040517f08c379a00000000000000000000000000000000000000000000000000000000081526004016108aa90613b49565b60405180910390fd5b6108be8383836112d5565b505050565b6000600c6000838152602001908152602001600020600101549050919050565b600080600d60009054906101000a900473ffffffffffffffffffffffffffffffffffffffff1661271060fa856109199190613d35565b6109239190613d04565b915091509250929050565b6000801b61093b8161153c565b61094482611550565b5050565b610951826108c3565b61095a8161153c565b6109648383611604565b505050565b600061097483610c7c565b82106109b5576040517f08c379a00000000000000000000000000000000000000000000000000000000081526004016109ac90613909565b60405180910390fd5b600660008473ffffffffffffffffffffffffffffffffffffffff1673ffffffffffffffffffffffffffffffffffffffff168152602001908152602001600020600083815260200190815260200160002054905092915050565b610a16611136565b73ffffffffffffffffffffffffffffffffffffffff168173ffffffffffffffffffffffffffffffffffffffff1614610a83576040517f08c379a0000000000000000000000000000000000000000000000000000000008152600401610a7a90613ba9565b60405180910390fd5b610a8d82826116e5565b5050565b7f65d7a28e3265b37a6474929f336521b332c1681b933f6cb9f3376673440d862a610abb8161153c565b610ac36117c7565b50565b610ae183838360405180602001604052806000815250610e83565b505050565b610af7610af1611136565b826111f7565b610b36576040517f08c379a0000000000000000000000000000000000000000000000000000000008152600401610b2d90613b89565b60405180910390fd5b610b3f81611869565b50565b6000610b4c610856565b8210610b8d576040517f08c379a0000000000000000000000000000000000000000000000000000000008152600401610b8490613b69565b60405180910390fd5b60088281548110610ba157610ba0614046565b5b90600052602060002001549050919050565b6000600b60009054906101000a900460ff16905090565b6000806002600084815260200190815260200160002060009054906101000a900473ffffffffffffffffffffffffffffffffffffffff169050600073ffffffffffffffffffffffffffffffffffffffff168173ffffffffffffffffffffffffffffffffffffffff161415610c73576040517f08c379a0000000000000000000000000000000000000000000000000000000008152600401610c6a90613a49565b60405180910390fd5b80915050919050565b60008073ffffffffffffffffffffffffffffffffffffffff168273ffffffffffffffffffffffffffffffffffffffff161415610ced576040517f08c379a0000000000000000000000000000000000000000000000000000000008152600401610ce490613a29565b60405180910390fd5b600360008373ffffffffffffffffffffffffffffffffffffffff1673ffffffffffffffffffffffffffffffffffffffff168152602001908152602001600020549050919050565b7f65d7a28e3265b37a6474929f336521b332c1681b933f6cb9f3376673440d862a610d5e8161153c565b610d66611875565b50565b6000600c600084815260200190815260200160002060000160008373ffffffffffffffffffffffffffffffffffffffff1673ffffffffffffffffffffffffffffffffffffffff16815260200190815260200160002060009054906101000a900460ff16905092915050565b606060018054610de390613ead565b80601f0160208091040260200160405190810160405280929190818152602001828054610e0f90613ead565b8015610e5c5780601f10610e3157610100808354040283529160200191610e5c565b820191906000526020600020905b815481529060010190602001808311610e3f57829003601f168201915b5050505050905090565b6000801b81565b610e7f610e78611136565b8383611918565b5050565b610e94610e8e611136565b836111f7565b610ed3576040517f08c379a0000000000000000000000000000000000000000000000000000000008152600401610eca90613b49565b60405180910390fd5b610edf84848484611a85565b50505050565b6060610ef082611ae1565b9050919050565b7f9f2df0fed2c77648de5860a4cc508cd0818c85b8b8a1ab4ceeef8d981c8956a6610f218161153c565b6000610f2d600e611c33565b9050610f39600e611c41565b610f438482611c57565b610f4d8184611c75565b50505050565b7f9f2df0fed2c77648de5860a4cc508cd0818c85b8b8a1ab4ceeef8d981c8956a681565b610f80826108c3565b610f898161153c565b610f9383836116e5565b505050565b7f65d7a28e3265b37a6474929f336521b332c1681b933f6cb9f3376673440d862a81565b6000600560008473ffffffffffffffffffffffffffffffffffffffff1673ffffffffffffffffffffffffffffffffffffffff16815260200190815260200160002060008373ffffffffffffffffffffffffffffffffffffffff1673ffffffffffffffffffffffffffffffffffffffff16815260200190815260200160002060009054906101000a900460ff16905092915050565b60007f7965db0b000000000000000000000000000000000000000000000000000000007bffffffffffffffffffffffffffffffffffffffffffffffffffffffff1916827bffffffffffffffffffffffffffffffffffffffffffffffffffffffff191614806110c357506110c282611ce9565b5b9050919050565b60008073ffffffffffffffffffffffffffffffffffffffff166002600084815260200190815260200160002060009054906101000a900473ffffffffffffffffffffffffffffffffffffffff1673ffffffffffffffffffffffffffffffffffffffff1614159050919050565b600033905090565b816004600083815260200190815260200160002060006101000a81548173ffffffffffffffffffffffffffffffffffffffff021916908373ffffffffffffffffffffffffffffffffffffffff160217905550808273ffffffffffffffffffffffffffffffffffffffff166111b183610bca565b73ffffffffffffffffffffffffffffffffffffffff167f8c5be1e5ebec7d5bd14f71427d1e84f3dd0314c0f7b2291e5b200ac8c7c3b92560405160405180910390a45050565b6000611202826110ca565b611241576040517f08c379a0000000000000000000000000000000000000000000000000000000008152600401611238906139c9565b60405180910390fd5b600061124c83610bca565b90508073ffffffffffffffffffffffffffffffffffffffff168473ffffffffffffffffffffffffffffffffffffffff16148061128e575061128d8185610fbc565b5b806112cc57508373ffffffffffffffffffffffffffffffffffffffff166112b4846106b9565b73ffffffffffffffffffffffffffffffffffffffff16145b91505092915050565b8273ffffffffffffffffffffffffffffffffffffffff166112f582610bca565b73ffffffffffffffffffffffffffffffffffffffff161461134b576040517f08c379a000000000000000000000000000000000000000000000000000000000815260040161134290613949565b60405180910390fd5b600073ffffffffffffffffffffffffffffffffffffffff168273ffffffffffffffffffffffffffffffffffffffff1614156113bb576040517f08c379a00000000000000000000000000000000000000000000000000000000081526004016113b290613989565b60405180910390fd5b6113c6838383611d63565b6113d160008261113e565b6001600360008573ffffffffffffffffffffffffffffffffffffffff1673ffffffffffffffffffffffffffffffffffffffff16815260200190815260200160002060008282546114219190613d8f565b925050819055506001600360008473ffffffffffffffffffffffffffffffffffffffff1673ffffffffffffffffffffffffffffffffffffffff16815260200190815260200160002060008282546114789190613cae565b92505081905550816002600083815260200190815260200160002060006101000a81548173ffffffffffffffffffffffffffffffffffffffff021916908373ffffffffffffffffffffffffffffffffffffffff160217905550808273ffffffffffffffffffffffffffffffffffffffff168473ffffffffffffffffffffffffffffffffffffffff167fddf252ad1be2c89b69c2b068fc378daa952ba7f163c4a11628f55a4df523b3ef60405160405180910390a4611537838383611dbb565b505050565b61154d81611548611136565b611dc0565b50565b600073ffffffffffffffffffffffffffffffffffffffff168173ffffffffffffffffffffffffffffffffffffffff1614156115c0576040517f08c379a00000000000000000000000000000000000000000000000000000000081526004016115b790613b29565b60405180910390fd5b80600d60006101000a81548173ffffffffffffffffffffffffffffffffffffffff021916908373ffffffffffffffffffffffffffffffffffffffff16021790555050565b61160e8282610d69565b6116e1576001600c600084815260200190815260200160002060000160008373ffffffffffffffffffffffffffffffffffffffff1673ffffffffffffffffffffffffffffffffffffffff16815260200190815260200160002060006101000a81548160ff021916908315150217905550611686611136565b73ffffffffffffffffffffffffffffffffffffffff168173ffffffffffffffffffffffffffffffffffffffff16837f2f8788117e7eff1d82e926ec794901d17c78024a50270940304540a733656f0d60405160405180910390a45b5050565b6116ef8282610d69565b156117c3576000600c600084815260200190815260200160002060000160008373ffffffffffffffffffffffffffffffffffffffff1673ffffffffffffffffffffffffffffffffffffffff16815260200190815260200160002060006101000a81548160ff021916908315150217905550611768611136565b73ffffffffffffffffffffffffffffffffffffffff168173ffffffffffffffffffffffffffffffffffffffff16837ff6391f5c32d9c69d2a47ea670b442974b53935d1edc7fd64eb21e047a839171b60405160405180910390a45b5050565b6117cf610bb3565b61180e576040517f08c379a0000000000000000000000000000000000000000000000000000000008152600401611805906138e9565b60405180910390fd5b6000600b60006101000a81548160ff0219169083151502179055507f5db9ee0a495bf2e6ff9c91a7834c1ba4fdd244a5e8aa4e537bd38aeae4b073aa611852611136565b60405161185f91906137e1565b60405180910390a1565b61187281611e5d565b50565b61187d610bb3565b156118bd576040517f08c379a00000000000000000000000000000000000000000000000000000000081526004016118b4906139e9565b60405180910390fd5b6001600b60006101000a81548160ff0219169083151502179055507f62e78cea01bee320cd4e420270b5ea74000d11b0c9f74754ebdbfc544b05a258611901611136565b60405161190e91906137e1565b60405180910390a1565b8173ffffffffffffffffffffffffffffffffffffffff168373ffffffffffffffffffffffffffffffffffffffff161415611987576040517f08c379a000000000000000000000000000000000000000000000000000000000815260040161197e906139a9565b60405180910390fd5b80600560008573ffffffffffffffffffffffffffffffffffffffff1673ffffffffffffffffffffffffffffffffffffffff16815260200190815260200160002060008473ffffffffffffffffffffffffffffffffffffffff1673ffffffffffffffffffffffffffffffffffffffff16815260200190815260200160002060006101000a81548160ff0219169083151502179055508173ffffffffffffffffffffffffffffffffffffffff168373ffffffffffffffffffffffffffffffffffffffff167f17307eab39ab6107e8899845ad3d59bd9653f200f220920489ca2b5937696c3183604051611a789190613871565b60405180910390a3505050565b611a908484846112d5565b611a9c84848484611eb0565b611adb576040517f08c379a0000000000000000000000000000000000000000000000000000000008152600401611ad290613929565b60405180910390fd5b50505050565b6060611aec826110ca565b611b2b576040517f08c379a0000000000000000000000000000000000000000000000000000000008152600401611b2290613aa9565b60405180910390fd5b6000600a60008481526020019081526020016000208054611b4b90613ead565b80601f0160208091040260200160405190810160405280929190818152602001828054611b7790613ead565b8015611bc45780601f10611b9957610100808354040283529160200191611bc4565b820191906000526020600020905b815481529060010190602001808311611ba757829003601f168201915b505050505090506000611bd5612047565b9050600081511415611beb578192505050611c2e565b600082511115611c20578082604051602001611c08929190613783565b60405160208183030381529060405292505050611c2e565b611c298461205e565b925050505b919050565b600081600001549050919050565b6001816000016000828254019250508190555050565b611c71828260405180602001604052806000815250612105565b5050565b611c7e826110ca565b611cbd576040517f08c379a0000000000000000000000000000000000000000000000000000000008152600401611cb490613a69565b60405180910390fd5b80600a60008481526020019081526020016000209080519060200190611ce4929190612d82565b505050565b60007f780e9d63000000000000000000000000000000000000000000000000000000007bffffffffffffffffffffffffffffffffffffffffffffffffffffffff1916827bffffffffffffffffffffffffffffffffffffffffffffffffffffffff19161480611d5c5750611d5b82612160565b5b9050919050565b611d6b610bb3565b15611dab576040517f08c379a0000000000000000000000000000000000000000000000000000000008152600401611da2906139e9565b60405180910390fd5b611db6838383612242565b505050565b505050565b611dca8282610d69565b611e5957611def8173ffffffffffffffffffffffffffffffffffffffff166014612356565b611dfd8360001c6020612356565b604051602001611e0e9291906137a7565b6040516020818303038152906040526040517f08c379a0000000000000000000000000000000000000000000000000000000008152600401611e5091906138a7565b60405180910390fd5b5050565b611e6681612592565b6000600a60008381526020019081526020016000208054611e8690613ead565b905014611ead57600a60008281526020019081526020016000206000611eac9190612e08565b5b50565b6000611ed18473ffffffffffffffffffffffffffffffffffffffff166126af565b1561203a578373ffffffffffffffffffffffffffffffffffffffff1663150b7a02611efa611136565b8786866040518563ffffffff1660e01b8152600401611f1c94939291906137fc565b602060405180830381600087803b158015611f3657600080fd5b505af1925050508015611f6757506040513d601f19601f82011682018060405250810190611f64919061327c565b60015b611fea573d8060008114611f97576040519150601f19603f3d011682016040523d82523d6000602084013e611f9c565b606091505b50600081511415611fe2576040517f08c379a0000000000000000000000000000000000000000000000000000000008152600401611fd990613929565b60405180910390fd5b805181602001fd5b63150b7a0260e01b7bffffffffffffffffffffffffffffffffffffffffffffffffffffffff1916817bffffffffffffffffffffffffffffffffffffffffffffffffffffffff19161491505061203f565b600190505b949350505050565b606060405180602001604052806000815250905090565b6060612069826110ca565b6120a8576040517f08c379a000000000000000000000000000000000000000000000000000000000815260040161209f90613ae9565b60405180910390fd5b60006120b2612047565b905060008151116120d257604051806020016040528060008152506120fd565b806120dc846126d2565b6040516020016120ed929190613783565b6040516020818303038152906040525b915050919050565b61210f8383612833565b61211c6000848484611eb0565b61215b576040517f08c379a000000000000000000000000000000000000000000000000000000000815260040161215290613929565b60405180910390fd5b505050565b60007f80ac58cd000000000000000000000000000000000000000000000000000000007bffffffffffffffffffffffffffffffffffffffffffffffffffffffff1916827bffffffffffffffffffffffffffffffffffffffffffffffffffffffff1916148061222b57507f5b5e139f000000000000000000000000000000000000000000000000000000007bffffffffffffffffffffffffffffffffffffffffffffffffffffffff1916827bffffffffffffffffffffffffffffffffffffffffffffffffffffffff1916145b8061223b575061223a82612a0d565b5b9050919050565b61224d838383612a77565b600073ffffffffffffffffffffffffffffffffffffffff168373ffffffffffffffffffffffffffffffffffffffff1614156122905761228b81612a7c565b6122cf565b8173ffffffffffffffffffffffffffffffffffffffff168373ffffffffffffffffffffffffffffffffffffffff16146122ce576122cd8382612ac5565b5b5b600073ffffffffffffffffffffffffffffffffffffffff168273ffffffffffffffffffffffffffffffffffffffff1614156123125761230d81612c32565b612351565b8273ffffffffffffffffffffffffffffffffffffffff168273ffffffffffffffffffffffffffffffffffffffff16146123505761234f8282612d03565b5b5b505050565b6060600060028360026123699190613d35565b6123739190613cae565b67ffffffffffffffff81111561238c5761238b614075565b5b6040519080825280601f01601f1916602001820160405280156123be5781602001600182028036833780820191505090505b5090507f3000000000000000000000000000000000000000000000000000000000000000816000815181106123f6576123f5614046565b5b60200101907effffffffffffffffffffffffffffffffffffffffffffffffffffffffffffff1916908160001a9053507f78000000000000000000000000000000000000000000000000000000000000008160018151811061245a57612459614046565b5b60200101907effffffffffffffffffffffffffffffffffffffffffffffffffffffffffffff1916908160001a9053506000600184600261249a9190613d35565b6124a49190613cae565b90505b6001811115612544577f3031323334353637383961626364656600000000000000000000000000000000600f8616601081106124e6576124e5614046565b5b1a60f81b8282815181106124fd576124fc614046565b5b60200101907effffffffffffffffffffffffffffffffffffffffffffffffffffffffffffff1916908160001a905350600485901c94508061253d90613e83565b90506124a7565b5060008414612588576040517f08c379a000000000000000000000000000000000000000000000000000000000815260040161257f906138c9565b60405180910390fd5b8091505092915050565b600061259d82610bca565b90506125ab81600084611d63565b6125b660008361113e565b6001600360008373ffffffffffffffffffffffffffffffffffffffff1673ffffffffffffffffffffffffffffffffffffffff16815260200190815260200160002060008282546126069190613d8f565b925050819055506002600083815260200190815260200160002060006101000a81549073ffffffffffffffffffffffffffffffffffffffff021916905581600073ffffffffffffffffffffffffffffffffffffffff168273ffffffffffffffffffffffffffffffffffffffff167fddf252ad1be2c89b69c2b068fc378daa952ba7f163c4a11628f55a4df523b3ef60405160405180910390a46126ab81600084611dbb565b5050565b6000808273ffffffffffffffffffffffffffffffffffffffff163b119050919050565b6060600082141561271a576040518060400160405280600181526020017f3000000000000000000000000000000000000000000000000000000000000000815250905061282e565b600082905060005b6000821461274c57808061273590613f10565b915050600a826127459190613d04565b9150612722565b60008167ffffffffffffffff81111561276857612767614075565b5b6040519080825280601f01601f19166020018201604052801561279a5781602001600182028036833780820191505090505b5090505b60008514612827576001826127b39190613d8f565b9150600a856127c29190613f59565b60306127ce9190613cae565b60f81b8183815181106127e4576127e3614046565b5b60200101907effffffffffffffffffffffffffffffffffffffffffffffffffffffffffffff1916908160001a905350600a856128209190613d04565b945061279e565b8093505050505b919050565b600073ffffffffffffffffffffffffffffffffffffffff168273ffffffffffffffffffffffffffffffffffffffff1614156128a3576040517f08c379a000000000000000000000000000000000000000000000000000000000815260040161289a90613a89565b60405180910390fd5b6128ac816110ca565b156128ec576040517f08c379a00000000000000000000000000000000000000000000000000000000081526004016128e390613969565b60405180910390fd5b6128f860008383611d63565b6001600360008473ffffffffffffffffffffffffffffffffffffffff1673ffffffffffffffffffffffffffffffffffffffff16815260200190815260200160002060008282546129489190613cae565b92505081905550816002600083815260200190815260200160002060006101000a81548173ffffffffffffffffffffffffffffffffffffffff021916908373ffffffffffffffffffffffffffffffffffffffff160217905550808273ffffffffffffffffffffffffffffffffffffffff16600073ffffffffffffffffffffffffffffffffffffffff167fddf252ad1be2c89b69c2b068fc378daa952ba7f163c4a11628f55a4df523b3ef60405160405180910390a4612a0960008383611dbb565b5050565b60007f01ffc9a7000000000000000000000000000000000000000000000000000000007bffffffffffffffffffffffffffffffffffffffffffffffffffffffff1916827bffffffffffffffffffffffffffffffffffffffffffffffffffffffff1916149050919050565b505050565b6008805490506009600083815260200190815260200160002081905550600881908060018154018082558091505060019003906000526020600020016000909190919091505550565b60006001612ad284610c7c565b612adc9190613d8f565b9050600060076000848152602001908152602001600020549050818114612bc1576000600660008673ffffffffffffffffffffffffffffffffffffffff1673ffffffffffffffffffffffffffffffffffffffff168152602001908152602001600020600084815260200190815260200160002054905080600660008773ffffffffffffffffffffffffffffffffffffffff1673ffffffffffffffffffffffffffffffffffffffff168152602001908152602001600020600084815260200190815260200160002081905550816007600083815260200190815260200160002081905550505b6007600084815260200190815260200160002060009055600660008573ffffffffffffffffffffffffffffffffffffffff1673ffffffffffffffffffffffffffffffffffffffff16815260200190815260200160002060008381526020019081526020016000206000905550505050565b60006001600880549050612c469190613d8f565b9050600060096000848152602001908152602001600020549050600060088381548110612c7657612c75614046565b5b906000526020600020015490508060088381548110612c9857612c97614046565b5b906000526020600020018190555081600960008381526020019081526020016000208190555060096000858152602001908152602001600020600090556008805480612ce757612ce6614017565b5b6001900381819060005260206000200160009055905550505050565b6000612d0e83610c7c565b905081600660008573ffffffffffffffffffffffffffffffffffffffff1673ffffffffffffffffffffffffffffffffffffffff168152602001908152602001600020600083815260200190815260200160002081905550806007600084815260200190815260200160002081905550505050565b828054612d8e90613ead565b90600052602060002090601f016020900481019282612db05760008555612df7565b82601f10612dc957805160ff1916838001178555612df7565b82800160010185558215612df7579182015b82811115612df6578251825591602001919060010190612ddb565b5b509050612e049190612e48565b5090565b508054612e1490613ead565b6000825580601f10612e265750612e45565b601f016020900490600052602060002090810190612e449190612e48565b5b50565b5b80821115612e61576000816000905550600101612e49565b5090565b6000612e78612e7384613c09565b613be4565b905082815260208101848484011115612e9457612e936140a9565b5b612e9f848285613e41565b509392505050565b6000612eba612eb584613c3a565b613be4565b905082815260208101848484011115612ed657612ed56140a9565b5b612ee1848285613e41565b509392505050565b600081359050612ef88161479f565b92915050565b600081359050612f0d816147b6565b92915050565b600081359050612f22816147cd565b92915050565b600081359050612f37816147e4565b92915050565b600081519050612f4c816147e4565b92915050565b600082601f830112612f6757612f666140a4565b5b8135612f77848260208601612e65565b91505092915050565b600082601f830112612f9557612f946140a4565b5b8135612fa5848260208601612ea7565b91505092915050565b600081359050612fbd816147fb565b92915050565b600060208284031215612fd957612fd86140b3565b5b6000612fe784828501612ee9565b91505092915050565b60008060408385031215613007576130066140b3565b5b600061301585828601612ee9565b925050602061302685828601612ee9565b9150509250929050565b600080600060608486031215613049576130486140b3565b5b600061305786828701612ee9565b935050602061306886828701612ee9565b925050604061307986828701612fae565b9150509250925092565b6000806000806080858703121561309d5761309c6140b3565b5b60006130ab87828801612ee9565b94505060206130bc87828801612ee9565b93505060406130cd87828801612fae565b925050606085013567ffffffffffffffff8111156130ee576130ed6140ae565b5b6130fa87828801612f52565b91505092959194509250565b6000806040838503121561311d5761311c6140b3565b5b600061312b85828601612ee9565b925050602061313c85828601612efe565b9150509250929050565b6000806040838503121561315d5761315c6140b3565b5b600061316b85828601612ee9565b925050602083013567ffffffffffffffff81111561318c5761318b6140ae565b5b61319885828601612f80565b9150509250929050565b600080604083850312156131b9576131b86140b3565b5b60006131c785828601612ee9565b92505060206131d885828601612fae565b9150509250929050565b6000602082840312156131f8576131f76140b3565b5b600061320684828501612f13565b91505092915050565b60008060408385031215613226576132256140b3565b5b600061323485828601612f13565b925050602061324585828601612ee9565b9150509250929050565b600060208284031215613265576132646140b3565b5b600061327384828501612f28565b91505092915050565b600060208284031215613292576132916140b3565b5b60006132a084828501612f3d565b91505092915050565b6000602082840312156132bf576132be6140b3565b5b60006132cd84828501612fae565b91505092915050565b600080604083850312156132ed576132ec6140b3565b5b60006132fb85828601612fae565b925050602061330c85828601612fae565b9150509250929050565b61331f81613dc3565b82525050565b61332e81613dd5565b82525050565b61333d81613de1565b82525050565b600061334e82613c6b565b6133588185613c81565b9350613368818560208601613e50565b613371816140b8565b840191505092915050565b600061338782613c76565b6133918185613c92565b93506133a1818560208601613e50565b6133aa816140b8565b840191505092915050565b60006133c082613c76565b6133ca8185613ca3565b93506133da818560208601613e50565b80840191505092915050565b60006133f3602083613c92565b91506133fe826140c9565b602082019050919050565b6000613416601483613c92565b9150613421826140f2565b602082019050919050565b6000613439602b83613c92565b91506134448261411b565b604082019050919050565b600061345c603283613c92565b91506134678261416a565b604082019050919050565b600061347f602583613c92565b915061348a826141b9565b604082019050919050565b60006134a2601c83613c92565b91506134ad82614208565b602082019050919050565b60006134c5602483613c92565b91506134d082614231565b604082019050919050565b60006134e8601983613c92565b91506134f382614280565b602082019050919050565b600061350b602c83613c92565b9150613516826142a9565b604082019050919050565b600061352e601083613c92565b9150613539826142f8565b602082019050919050565b6000613551603883613c92565b915061355c82614321565b604082019050919050565b6000613574602a83613c92565b915061357f82614370565b604082019050919050565b6000613597602983613c92565b91506135a2826143bf565b604082019050919050565b60006135ba602e83613c92565b91506135c58261440e565b604082019050919050565b60006135dd602083613c92565b91506135e88261445d565b602082019050919050565b6000613600603183613c92565b915061360b82614486565b604082019050919050565b6000613623602c83613c92565b915061362e826144d5565b604082019050919050565b6000613646602f83613c92565b915061365182614524565b604082019050919050565b6000613669602183613c92565b915061367482614573565b604082019050919050565b600061368c602c83613c92565b9150613697826145c2565b604082019050919050565b60006136af603183613c92565b91506136ba82614611565b604082019050919050565b60006136d2602c83613c92565b91506136dd82614660565b604082019050919050565b60006136f5601783613ca3565b9150613700826146af565b601782019050919050565b6000613718603083613c92565b9150613723826146d8565b604082019050919050565b600061373b601183613ca3565b915061374682614727565b601182019050919050565b600061375e602f83613c92565b915061376982614750565b604082019050919050565b61377d81613e37565b82525050565b600061378f82856133b5565b915061379b82846133b5565b91508190509392505050565b60006137b2826136e8565b91506137be82856133b5565b91506137c98261372e565b91506137d582846133b5565b91508190509392505050565b60006020820190506137f66000830184613316565b92915050565b60006080820190506138116000830187613316565b61381e6020830186613316565b61382b6040830185613774565b818103606083015261383d8184613343565b905095945050505050565b600060408201905061385d6000830185613316565b61386a6020830184613774565b9392505050565b60006020820190506138866000830184613325565b92915050565b60006020820190506138a16000830184613334565b92915050565b600060208201905081810360008301526138c1818461337c565b905092915050565b600060208201905081810360008301526138e2816133e6565b9050919050565b6000602082019050818103600083015261390281613409565b9050919050565b600060208201905081810360008301526139228161342c565b9050919050565b600060208201905081810360008301526139428161344f565b9050919050565b6000602082019050818103600083015261396281613472565b9050919050565b6000602082019050818103600083015261398281613495565b9050919050565b600060208201905081810360008301526139a2816134b8565b9050919050565b600060208201905081810360008301526139c2816134db565b9050919050565b600060208201905081810360008301526139e2816134fe565b9050919050565b60006020820190508181036000830152613a0281613521565b9050919050565b60006020820190508181036000830152613a2281613544565b9050919050565b60006020820190508181036000830152613a4281613567565b9050919050565b60006020820190508181036000830152613a628161358a565b9050919050565b60006020820190508181036000830152613a82816135ad565b9050919050565b60006020820190508181036000830152613aa2816135d0565b9050919050565b60006020820190508181036000830152613ac2816135f3565b9050919050565b60006020820190508181036000830152613ae281613616565b9050919050565b60006020820190508181036000830152613b0281613639565b9050919050565b60006020820190508181036000830152613b228161365c565b9050919050565b60006020820190508181036000830152613b428161367f565b9050919050565b60006020820190508181036000830152613b62816136a2565b9050919050565b60006020820190508181036000830152613b82816136c5565b9050919050565b60006020820190508181036000830152613ba28161370b565b9050919050565b60006020820190508181036000830152613bc281613751565b9050919050565b6000602082019050613bde6000830184613774565b92915050565b6000613bee613bff565b9050613bfa8282613edf565b919050565b6000604051905090565b600067ffffffffffffffff821115613c2457613c23614075565b5b613c2d826140b8565b9050602081019050919050565b600067ffffffffffffffff821115613c5557613c54614075565b5b613c5e826140b8565b9050602081019050919050565b600081519050919050565b600081519050919050565b600082825260208201905092915050565b600082825260208201905092915050565b600081905092915050565b6000613cb982613e37565b9150613cc483613e37565b9250827fffffffffffffffffffffffffffffffffffffffffffffffffffffffffffffffff03821115613cf957613cf8613f8a565b5b828201905092915050565b6000613d0f82613e37565b9150613d1a83613e37565b925082613d2a57613d29613fb9565b5b828204905092915050565b6000613d4082613e37565b9150613d4b83613e37565b9250817fffffffffffffffffffffffffffffffffffffffffffffffffffffffffffffffff0483118215151615613d8457613d83613f8a565b5b828202905092915050565b6000613d9a82613e37565b9150613da583613e37565b925082821015613db857613db7613f8a565b5b828203905092915050565b6000613dce82613e17565b9050919050565b60008115159050919050565b6000819050919050565b60007fffffffff0000000000000000000000000000000000000000000000000000000082169050919050565b600073ffffffffffffffffffffffffffffffffffffffff82169050919050565b6000819050919050565b82818337600083830152505050565b60005b83811015613e6e578082015181840152602081019050613e53565b83811115613e7d576000848401525b50505050565b6000613e8e82613e37565b91506000821415613ea257613ea1613f8a565b5b600182039050919050565b60006002820490506001821680613ec557607f821691505b60208210811415613ed957613ed8613fe8565b5b50919050565b613ee8826140b8565b810181811067ffffffffffffffff82111715613f0757613f06614075565b5b80604052505050565b6000613f1b82613e37565b91507fffffffffffffffffffffffffffffffffffffffffffffffffffffffffffffffff821415613f4e57613f4d613f8a565b5b600182019050919050565b6000613f6482613e37565b9150613f6f83613e37565b925082613f7f57613f7e613fb9565b5b828206905092915050565b7f4e487b7100000000000000000000000000000000000000000000000000000000600052601160045260246000fd5b7f4e487b7100000000000000000000000000000000000000000000000000000000600052601260045260246000fd5b7f4e487b7100000000000000000000000000000000000000000000000000000000600052602260045260246000fd5b7f4e487b7100000000000000000000000000000000000000000000000000000000600052603160045260246000fd5b7f4e487b7100000000000000000000000000000000000000000000000000000000600052603260045260246000fd5b7f4e487b7100000000000000000000000000000000000000000000000000000000600052604160045260246000fd5b600080fd5b600080fd5b600080fd5b600080fd5b6000601f19601f8301169050919050565b7f537472696e67733a20686578206c656e67746820696e73756666696369656e74600082015250565b7f5061757361626c653a206e6f7420706175736564000000000000000000000000600082015250565b7f455243373231456e756d657261626c653a206f776e657220696e646578206f7560008201527f74206f6620626f756e6473000000000000000000000000000000000000000000602082015250565b7f4552433732313a207472616e7366657220746f206e6f6e20455243373231526560008201527f63656976657220696d706c656d656e7465720000000000000000000000000000602082015250565b7f4552433732313a207472616e736665722066726f6d20696e636f72726563742060008201527f6f776e6572000000000000000000000000000000000000000000000000000000602082015250565b7f4552433732313a20746f6b656e20616c7265616479206d696e74656400000000600082015250565b7f4552433732313a207472616e7366657220746f20746865207a65726f2061646460008201527f7265737300000000000000000000000000000000000000000000000000000000602082015250565b7f4552433732313a20617070726f766520746f2063616c6c657200000000000000600082015250565b7f4552433732313a206f70657261746f7220717565727920666f72206e6f6e657860008201527f697374656e7420746f6b656e0000000000000000000000000000000000000000602082015250565b7f5061757361626c653a2070617573656400000000000000000000000000000000600082015250565b7f4552433732313a20617070726f76652063616c6c6572206973206e6f74206f7760008201527f6e6572206e6f7220617070726f76656420666f7220616c6c0000000000000000602082015250565b7f4552433732313a2062616c616e636520717565727920666f7220746865207a6560008201527f726f206164647265737300000000000000000000000000000000000000000000602082015250565b7f4552433732313a206f776e657220717565727920666f72206e6f6e657869737460008201527f656e7420746f6b656e0000000000000000000000000000000000000000000000602082015250565b7f45524337323155524953746f726167653a2055524920736574206f66206e6f6e60008201527f6578697374656e7420746f6b656e000000000000000000000000000000000000602082015250565b7f4552433732313a206d696e7420746f20746865207a65726f2061646472657373600082015250565b7f45524337323155524953746f726167653a2055524920717565727920666f722060008201527f6e6f6e6578697374656e7420746f6b656e000000000000000000000000000000602082015250565b7f4552433732313a20617070726f76656420717565727920666f72206e6f6e657860008201527f697374656e7420746f6b656e0000000000000000000000000000000000000000602082015250565b7f4552433732314d657461646174613a2055524920717565727920666f72206e6f60008201527f6e6578697374656e7420746f6b656e0000000000000000000000000000000000602082015250565b7f4552433732313a20617070726f76616c20746f2063757272656e74206f776e6560008201527f7200000000000000000000000000000000000000000000000000000000000000602082015250565b7f526f79616c746965733a206e657720726563697069656e74206973207468652060008201527f7a65726f20616464726573730000000000000000000000000000000000000000602082015250565b7f4552433732313a207472616e736665722063616c6c6572206973206e6f74206f60008201527f776e6572206e6f7220617070726f766564000000000000000000000000000000602082015250565b7f455243373231456e756d657261626c653a20676c6f62616c20696e646578206f60008201527f7574206f6620626f756e64730000000000000000000000000000000000000000602082015250565b7f416363657373436f6e74726f6c3a206163636f756e7420000000000000000000600082015250565b7f4552433732314275726e61626c653a2063616c6c6572206973206e6f74206f7760008201527f6e6572206e6f7220617070726f76656400000000000000000000000000000000602082015250565b7f206973206d697373696e6720726f6c6520000000000000000000000000000000600082015250565b7f416363657373436f6e74726f6c3a2063616e206f6e6c792072656e6f756e636560008201527f20726f6c657320666f722073656c660000000000000000000000000000000000602082015250565b6147a881613dc3565b81146147b357600080fd5b50565b6147bf81613dd5565b81146147ca57600080fd5b50565b6147d681613de1565b81146147e157600080fd5b50565b6147ed81613deb565b81146147f857600080fd5b50565b61480481613e37565b811461480f57600080fd5b5056fea2646970667358221220e6e0eed70423ecf8213627619a5506df85e259bf226e283cab8a0c38ef2e526964736f6c63430008070033",
  "linkReferences": {},
  "deployedLinkReferences": {}
}