{
  "_format": "hh-sol-artifact-1",
  "contractName": "MIKOMarketPlace",
  "sourceName": "contracts/MIKOMarketPlace.sol",
  "address": "0xD8e104374A28EA49F168Fc22F72Eac11E6C132e7",
  "abi": [
    {
      "inputs": [
        {
          "internalType": "address",
          "name": "nftAddress",
          "type": "address"
        },
        {
          "internalType": "uint256",
          "name": "tokenId",
          "type": "uint256"
        }
      ],
      "name": "AlreadyListed",
      "type": "error"
    },
    {
      "inputs": [],
      "name": "NoProceeds",
      "type": "error"
    },
    {
      "inputs": [],
      "name": "NotApprovedForMarketplace",
      "type": "error"
    },
    {
      "inputs": [
        {
          "internalType": "address",
          "name": "nftAddress",
          "type": "address"
        },
        {
          "internalType": "uint256",
          "name": "tokenId",
          "type": "uint256"
        }
      ],
      "name": "NotListed",
      "type": "error"
    },
    {
      "inputs": [],
      "name": "NotOwner",
      "type": "error"
    },
    {
      "inputs": [],
      "name": "PriceMustBeAboveZero",
      "type": "error"
    },
    {
      "inputs": [
        {
          "internalType": "address",
          "name": "nftAddress",
          "type": "address"
        },
        {
          "internalType": "uint256",
          "name": "tokenId",
          "type": "uint256"
        },
        {
          "internalType": "uint256",
          "name": "price",
          "type": "uint256"
        }
      ],
      "name": "PriceNotMet",
      "type": "error"
    },
    {
      "anonymous": false,
      "inputs": [
        {
          "indexed": true,
          "internalType": "address",
          "name": "buyer",
          "type": "address"
        },
        {
          "indexed": true,
          "internalType": "address",
          "name": "nftAddress",
          "type": "address"
        },
        {
          "indexed": true,
          "internalType": "uint256",
          "name": "tokenId",
          "type": "uint256"
        },
        {
          "indexed": false,
          "internalType": "uint256",
          "name": "price",
          "type": "uint256"
        }
      ],
      "name": "ItemBought",
      "type": "event"
    },
    {
      "anonymous": false,
      "inputs": [
        {
          "indexed": true,
          "internalType": "address",
          "name": "seller",
          "type": "address"
        },
        {
          "indexed": true,
          "internalType": "address",
          "name": "nftAddress",
          "type": "address"
        },
        {
          "indexed": true,
          "internalType": "uint256",
          "name": "tokenId",
          "type": "uint256"
        }
      ],
      "name": "ItemCanceled",
      "type": "event"
    },
    {
      "anonymous": false,
      "inputs": [
        {
          "indexed": true,
          "internalType": "address",
          "name": "seller",
          "type": "address"
        },
        {
          "indexed": true,
          "internalType": "address",
          "name": "nftAddress",
          "type": "address"
        },
        {
          "indexed": true,
          "internalType": "uint256",
          "name": "tokenId",
          "type": "uint256"
        },
        {
          "indexed": false,
          "internalType": "uint256",
          "name": "price",
          "type": "uint256"
        }
      ],
      "name": "ItemListed",
      "type": "event"
    },
    {
      "inputs": [
        {
          "internalType": "address",
          "name": "nftAddress",
          "type": "address"
        },
        {
          "internalType": "uint256",
          "name": "tokenId",
          "type": "uint256"
        },
        {
          "internalType": "uint256",
          "name": "tokenType",
          "type": "uint256"
        },
        {
          "internalType": "address",
          "name": "tokenReceiver",
          "type": "address"
        },
        {
          "internalType": "address",
          "name": "royaltyReceiver",
          "type": "address"
        },
        {
          "internalType": "uint256",
          "name": "royaltyAmount",
          "type": "uint256"
        }
      ],
      "name": "buyItem",
      "outputs": [],
      "stateMutability": "payable",
      "type": "function"
    },
    {
      "inputs": [
        {
          "internalType": "address",
          "name": "nftAddress",
          "type": "address"
        },
        {
          "internalType": "uint256",
          "name": "tokenId",
          "type": "uint256"
        },
        {
          "internalType": "uint256",
          "name": "tokenType",
          "type": "uint256"
        }
      ],
      "name": "cancelListing",
      "outputs": [],
      "stateMutability": "nonpayable",
      "type": "function"
    },
    {
      "inputs": [
        {
          "internalType": "address",
          "name": "nftAddress",
          "type": "address"
        },
        {
          "internalType": "uint256",
          "name": "tokenId",
          "type": "uint256"
        }
      ],
      "name": "getListing",
      "outputs": [
        {
          "components": [
            {
              "internalType": "uint256",
              "name": "price",
              "type": "uint256"
            },
            {
              "internalType": "address",
              "name": "seller",
              "type": "address"
            }
          ],
          "internalType": "struct IListing.Listing",
          "name": "",
          "type": "tuple"
        }
      ],
      "stateMutability": "view",
      "type": "function"
    },
    {
      "inputs": [
        {
          "internalType": "address",
          "name": "nftAddress",
          "type": "address"
        },
        {
          "internalType": "uint256",
          "name": "tokenId",
          "type": "uint256"
        },
        {
          "internalType": "uint256",
          "name": "price",
          "type": "uint256"
        },
        {
          "internalType": "uint256",
          "name": "tokenType",
          "type": "uint256"
        }
      ],
      "name": "listItem",
      "outputs": [],
      "stateMutability": "nonpayable",
      "type": "function"
    },
    {
      "inputs": [
        {
          "internalType": "address",
          "name": "nftAddress",
          "type": "address"
        },
        {
          "internalType": "uint256",
          "name": "tokenId",
          "type": "uint256"
        },
        {
          "internalType": "uint256",
          "name": "newPrice",
          "type": "uint256"
        },
        {
          "internalType": "uint256",
          "name": "tokenType",
          "type": "uint256"
        }
      ],
      "name": "updateListing",
      "outputs": [],
      "stateMutability": "nonpayable",
      "type": "function"
    }
  ],
  "bytecode": "0x608060405234801561001057600080fd5b50600160008190555061252a806100286000396000f3fe60806040526004361061004a5760003560e01c80634b3320e01461004f5780635aee0a351461007857806388700d1c14610094578063bcb143ef146100d1578063d9964757146100fa575b600080fd5b34801561005b57600080fd5b5061007660048036038101906100719190611ed6565b610123565b005b610092600480360381019061008d9190611f29565b6104f8565b005b3480156100a057600080fd5b506100bb60048036038101906100b69190611e96565b610b54565b6040516100c891906122ea565b60405180910390f35b3480156100dd57600080fd5b506100f860048036038101906100f39190611fb6565b610c1f565b005b34801561010657600080fd5b50610121600480360381019061011c9190611fb6565b61190d565b005b82823383600081141561022e57600084905060008173ffffffffffffffffffffffffffffffffffffffff16636352211e866040518263ffffffff1660e01b81526004016101709190612305565b60206040518083038186803b15801561018857600080fd5b505afa15801561019c573d6000803e3d6000fd5b505050506040513d601f19601f820116820180604052508101906101c09190611e69565b90508073ffffffffffffffffffffffffffffffffffffffff168473ffffffffffffffffffffffffffffffffffffffff1614610227576040517f30cd747100000000000000000000000000000000000000000000000000000000815260040160405180910390fd5b5050610303565b600181141561030257600084905060008173ffffffffffffffffffffffffffffffffffffffff1662fdd58e33876040518363ffffffff1660e01b815260040161027892919061224a565b60206040518083038186803b15801561029057600080fd5b505afa1580156102a4573d6000803e3d6000fd5b505050506040513d601f19601f820116820180604052508101906102c8919061204a565b1415610300576040517f30cd747100000000000000000000000000000000000000000000000000000000815260040160405180910390fd5b505b5b86866000600160008473ffffffffffffffffffffffffffffffffffffffff1673ffffffffffffffffffffffffffffffffffffffff1681526020019081526020016000206000838152602001908152602001600020604051806040016040529081600082015481526020016001820160009054906101000a900473ffffffffffffffffffffffffffffffffffffffff1673ffffffffffffffffffffffffffffffffffffffff1673ffffffffffffffffffffffffffffffffffffffff16815250509050600081600001511161040f5782826040517f6831488c00000000000000000000000000000000000000000000000000000000815260040161040692919061224a565b60405180910390fd5b600160008b73ffffffffffffffffffffffffffffffffffffffff1673ffffffffffffffffffffffffffffffffffffffff16815260200190815260200160002060008a81526020019081526020016000206000808201600090556001820160006101000a81549073ffffffffffffffffffffffffffffffffffffffff02191690555050888a73ffffffffffffffffffffffffffffffffffffffff163373ffffffffffffffffffffffffffffffffffffffff167f9ba1a3cb55ce8d63d072a886f94d2a744f50cddf82128e897d0661f5ec62315860405160405180910390a450505050505050505050565b85856000600160008473ffffffffffffffffffffffffffffffffffffffff1673ffffffffffffffffffffffffffffffffffffffff1681526020019081526020016000206000838152602001908152602001600020604051806040016040529081600082015481526020016001820160009054906101000a900473ffffffffffffffffffffffffffffffffffffffff1673ffffffffffffffffffffffffffffffffffffffff1673ffffffffffffffffffffffffffffffffffffffff1681525050905060008160000151116106045782826040517f6831488c0000000000000000000000000000000000000000000000000000000081526004016105fb92919061224a565b60405180910390fd5b6002600054141561064a576040517f08c379a0000000000000000000000000000000000000000000000000000000008152600401610641906122ca565b60405180910390fd5b60026000819055506000600160008b73ffffffffffffffffffffffffffffffffffffffff1673ffffffffffffffffffffffffffffffffffffffff16815260200190815260200160002060008a8152602001908152602001600020604051806040016040529081600082015481526020016001820160009054906101000a900473ffffffffffffffffffffffffffffffffffffffff1673ffffffffffffffffffffffffffffffffffffffff1673ffffffffffffffffffffffffffffffffffffffff16815250509050848160000151610721919061234d565b34101561076d57898982600001516040517f7c93456500000000000000000000000000000000000000000000000000000000815260040161076493929190612273565b60405180910390fd5b806000015160026000836020015173ffffffffffffffffffffffffffffffffffffffff1673ffffffffffffffffffffffffffffffffffffffff16815260200190815260200160002060008282546107c4919061234d565b92505081905550600160008b73ffffffffffffffffffffffffffffffffffffffff1673ffffffffffffffffffffffffffffffffffffffff16815260200190815260200160002060008a81526020019081526020016000206000808201600090556001820160006101000a81549073ffffffffffffffffffffffffffffffffffffffff021916905550506108578686611d55565b60008814156108d8578973ffffffffffffffffffffffffffffffffffffffff166342842e0e8260200151898c6040518463ffffffff1660e01b81526004016108a1939291906121bb565b600060405180830381600087803b1580156108bb57600080fd5b505af11580156108cf573d6000803e3d6000fd5b50505050610959565b6001881415610958578973ffffffffffffffffffffffffffffffffffffffff1663f242432a8260200151898c60016040518563ffffffff1660e01b815260040161092594939291906121f2565b600060405180830381600087803b15801561093f57600080fd5b505af1158015610953573d6000803e3d6000fd5b505050505b5b888a73ffffffffffffffffffffffffffffffffffffffff168873ffffffffffffffffffffffffffffffffffffffff167f263223b1dd81e51054a4e6f791d45a4a1ddb4aadcd93a2dfd892615c3fdac18784600001516040516109bb9190612305565b60405180910390a4600060026000836020015173ffffffffffffffffffffffffffffffffffffffff1673ffffffffffffffffffffffffffffffffffffffff16815260200190815260200160002054905060008111610a45576040517fc4d8fa8700000000000000000000000000000000000000000000000000000000815260040160405180910390fd5b600060026000846020015173ffffffffffffffffffffffffffffffffffffffff1673ffffffffffffffffffffffffffffffffffffffff168152602001908152602001600020819055506000826020015173ffffffffffffffffffffffffffffffffffffffff1682604051610ab89061217d565b60006040518083038185875af1925050503d8060008114610af5576040519150601f19603f3d011682016040523d82523d6000602084013e610afa565b606091505b5050905080610b3e576040517f08c379a0000000000000000000000000000000000000000000000000000000008152600401610b35906122aa565b60405180910390fd5b5050506001600081905550505050505050505050565b610b5c611dd0565b600160008473ffffffffffffffffffffffffffffffffffffffff1673ffffffffffffffffffffffffffffffffffffffff1681526020019081526020016000206000838152602001908152602001600020604051806040016040529081600082015481526020016001820160009054906101000a900473ffffffffffffffffffffffffffffffffffffffff1673ffffffffffffffffffffffffffffffffffffffff1673ffffffffffffffffffffffffffffffffffffffff1681525050905092915050565b838333836000600160008673ffffffffffffffffffffffffffffffffffffffff1673ffffffffffffffffffffffffffffffffffffffff1681526020019081526020016000206000858152602001908152602001600020604051806040016040529081600082015481526020016001820160009054906101000a900473ffffffffffffffffffffffffffffffffffffffff1673ffffffffffffffffffffffffffffffffffffffff1673ffffffffffffffffffffffffffffffffffffffff16815250509050600081600001511115610d2e5784846040517f4a5568d5000000000000000000000000000000000000000000000000000000008152600401610d2592919061224a565b60405180910390fd5b888833886000811415610e3957600084905060008173ffffffffffffffffffffffffffffffffffffffff16636352211e866040518263ffffffff1660e01b8152600401610d7b9190612305565b60206040518083038186803b158015610d9357600080fd5b505afa158015610da7573d6000803e3d6000fd5b505050506040513d601f19601f82011682018060405250810190610dcb9190611e69565b90508073ffffffffffffffffffffffffffffffffffffffff168473ffffffffffffffffffffffffffffffffffffffff1614610e32576040517f30cd747100000000000000000000000000000000000000000000000000000000815260040160405180910390fd5b5050610f0e565b6001811415610f0d57600084905060008173ffffffffffffffffffffffffffffffffffffffff1662fdd58e33876040518363ffffffff1660e01b8152600401610e8392919061224a565b60206040518083038186803b158015610e9b57600080fd5b505afa158015610eaf573d6000803e3d6000fd5b505050506040513d601f19601f82011682018060405250810190610ed3919061204a565b1415610f0b576040517f30cd747100000000000000000000000000000000000000000000000000000000815260040160405180910390fd5b505b5b60008b11610f48576040517fe1abbfc500000000000000000000000000000000000000000000000000000000815260040160405180910390fd5b60405180604001604052808c81526020013373ffffffffffffffffffffffffffffffffffffffff16815250600160008f73ffffffffffffffffffffffffffffffffffffffff1673ffffffffffffffffffffffffffffffffffffffff16815260200190815260200160002060008e81526020019081526020016000206000820151816000015560208201518160010160006101000a81548173ffffffffffffffffffffffffffffffffffffffff021916908373ffffffffffffffffffffffffffffffffffffffff1602179055509050508b8d73ffffffffffffffffffffffffffffffffffffffff163373ffffffffffffffffffffffffffffffffffffffff167fd547e933094f12a9159076970143ebe73234e64480317844b0dcb36117116de48e6040516110759190612305565b60405180910390a4505050505060008114156114d65760008490503073ffffffffffffffffffffffffffffffffffffffff168173ffffffffffffffffffffffffffffffffffffffff1663081812fc866040518263ffffffff1660e01b81526004016110e09190612305565b60206040518083038186803b1580156110f857600080fd5b505afa15801561110c573d6000803e3d6000fd5b505050506040513d601f19601f820116820180604052508101906111309190611e69565b73ffffffffffffffffffffffffffffffffffffffff161461117d576040517f4be3a2c500000000000000000000000000000000000000000000000000000000815260040160405180910390fd5b88883388600081141561128857600084905060008173ffffffffffffffffffffffffffffffffffffffff16636352211e866040518263ffffffff1660e01b81526004016111ca9190612305565b60206040518083038186803b1580156111e257600080fd5b505afa1580156111f6573d6000803e3d6000fd5b505050506040513d601f19601f8201168201806040525081019061121a9190611e69565b90508073ffffffffffffffffffffffffffffffffffffffff168473ffffffffffffffffffffffffffffffffffffffff1614611281576040517f30cd747100000000000000000000000000000000000000000000000000000000815260040160405180910390fd5b505061135d565b600181141561135c57600084905060008173ffffffffffffffffffffffffffffffffffffffff1662fdd58e33876040518363ffffffff1660e01b81526004016112d292919061224a565b60206040518083038186803b1580156112ea57600080fd5b505afa1580156112fe573d6000803e3d6000fd5b505050506040513d601f19601f82011682018060405250810190611322919061204a565b141561135a576040517f30cd747100000000000000000000000000000000000000000000000000000000815260040160405180910390fd5b505b5b60008b11611397576040517fe1abbfc500000000000000000000000000000000000000000000000000000000815260040160405180910390fd5b60405180604001604052808c81526020013373ffffffffffffffffffffffffffffffffffffffff16815250600160008f73ffffffffffffffffffffffffffffffffffffffff1673ffffffffffffffffffffffffffffffffffffffff16815260200190815260200160002060008e81526020019081526020016000206000820151816000015560208201518160010160006101000a81548173ffffffffffffffffffffffffffffffffffffffff021916908373ffffffffffffffffffffffffffffffffffffffff1602179055509050508b8d73ffffffffffffffffffffffffffffffffffffffff163373ffffffffffffffffffffffffffffffffffffffff167fd547e933094f12a9159076970143ebe73234e64480317844b0dcb36117116de48e6040516114c49190612305565b60405180910390a45050505050611903565b6001811415611902576000849050600015158173ffffffffffffffffffffffffffffffffffffffff1663e985e9c533306040518363ffffffff1660e01b8152600401611523929190612192565b60206040518083038186803b15801561153b57600080fd5b505afa15801561154f573d6000803e3d6000fd5b505050506040513d601f19601f82011682018060405250810190611573919061201d565b151514156115ad576040517f4be3a2c500000000000000000000000000000000000000000000000000000000815260040160405180910390fd5b8888338860008114156116b857600084905060008173ffffffffffffffffffffffffffffffffffffffff16636352211e866040518263ffffffff1660e01b81526004016115fa9190612305565b60206040518083038186803b15801561161257600080fd5b505afa158015611626573d6000803e3d6000fd5b505050506040513d601f19601f8201168201806040525081019061164a9190611e69565b90508073ffffffffffffffffffffffffffffffffffffffff168473ffffffffffffffffffffffffffffffffffffffff16146116b1576040517f30cd747100000000000000000000000000000000000000000000000000000000815260040160405180910390fd5b505061178d565b600181141561178c57600084905060008173ffffffffffffffffffffffffffffffffffffffff1662fdd58e33876040518363ffffffff1660e01b815260040161170292919061224a565b60206040518083038186803b15801561171a57600080fd5b505afa15801561172e573d6000803e3d6000fd5b505050506040513d601f19601f82011682018060405250810190611752919061204a565b141561178a576040517f30cd747100000000000000000000000000000000000000000000000000000000815260040160405180910390fd5b505b5b60008b116117c7576040517fe1abbfc500000000000000000000000000000000000000000000000000000000815260040160405180910390fd5b60405180604001604052808c81526020013373ffffffffffffffffffffffffffffffffffffffff16815250600160008f73ffffffffffffffffffffffffffffffffffffffff1673ffffffffffffffffffffffffffffffffffffffff16815260200190815260200160002060008e81526020019081526020016000206000820151816000015560208201518160010160006101000a81548173ffffffffffffffffffffffffffffffffffffffff021916908373ffffffffffffffffffffffffffffffffffffffff1602179055509050508b8d73ffffffffffffffffffffffffffffffffffffffff163373ffffffffffffffffffffffffffffffffffffffff167fd547e933094f12a9159076970143ebe73234e64480317844b0dcb36117116de48e6040516118f49190612305565b60405180910390a450505050505b5b5050505050505050565b83836000600160008473ffffffffffffffffffffffffffffffffffffffff1673ffffffffffffffffffffffffffffffffffffffff1681526020019081526020016000206000838152602001908152602001600020604051806040016040529081600082015481526020016001820160009054906101000a900473ffffffffffffffffffffffffffffffffffffffff1673ffffffffffffffffffffffffffffffffffffffff1673ffffffffffffffffffffffffffffffffffffffff168152505090506000816000015111611a195782826040517f6831488c000000000000000000000000000000000000000000000000000000008152600401611a1092919061224a565b60405180910390fd5b60026000541415611a5f576040517f08c379a0000000000000000000000000000000000000000000000000000000008152600401611a56906122ca565b60405180910390fd5b6002600081905550868633866000811415611b7257600084905060008173ffffffffffffffffffffffffffffffffffffffff16636352211e866040518263ffffffff1660e01b8152600401611ab49190612305565b60206040518083038186803b158015611acc57600080fd5b505afa158015611ae0573d6000803e3d6000fd5b505050506040513d601f19601f82011682018060405250810190611b049190611e69565b90508073ffffffffffffffffffffffffffffffffffffffff168473ffffffffffffffffffffffffffffffffffffffff1614611b6b576040517f30cd747100000000000000000000000000000000000000000000000000000000815260040160405180910390fd5b5050611c47565b6001811415611c4657600084905060008173ffffffffffffffffffffffffffffffffffffffff1662fdd58e33876040518363ffffffff1660e01b8152600401611bbc92919061224a565b60206040518083038186803b158015611bd457600080fd5b505afa158015611be8573d6000803e3d6000fd5b505050506040513d601f19601f82011682018060405250810190611c0c919061204a565b1415611c44576040517f30cd747100000000000000000000000000000000000000000000000000000000815260040160405180910390fd5b505b5b6000891415611c82576040517fe1abbfc500000000000000000000000000000000000000000000000000000000815260040160405180910390fd5b88600160008d73ffffffffffffffffffffffffffffffffffffffff1673ffffffffffffffffffffffffffffffffffffffff16815260200190815260200160002060008c815260200190815260200160002060000181905550898b73ffffffffffffffffffffffffffffffffffffffff163373ffffffffffffffffffffffffffffffffffffffff167fd547e933094f12a9159076970143ebe73234e64480317844b0dcb36117116de48c604051611d389190612305565b60405180910390a450505050600160008190555050505050505050565b60008273ffffffffffffffffffffffffffffffffffffffff1682604051611d7b9061217d565b60006040518083038185875af1925050503d8060008114611db8576040519150601f19603f3d011682016040523d82523d6000602084013e611dbd565b606091505b5050905080611dcb57600080fd5b505050565b604051806040016040528060008152602001600073ffffffffffffffffffffffffffffffffffffffff1681525090565b600081359050611e0f816124af565b92915050565b600081519050611e24816124af565b92915050565b600081519050611e39816124c6565b92915050565b600081359050611e4e816124dd565b92915050565b600081519050611e63816124dd565b92915050565b600060208284031215611e7f57611e7e61242c565b5b6000611e8d84828501611e15565b91505092915050565b60008060408385031215611ead57611eac61242c565b5b6000611ebb85828601611e00565b9250506020611ecc85828601611e3f565b9150509250929050565b600080600060608486031215611eef57611eee61242c565b5b6000611efd86828701611e00565b9350506020611f0e86828701611e3f565b9250506040611f1f86828701611e3f565b9150509250925092565b60008060008060008060c08789031215611f4657611f4561242c565b5b6000611f5489828a01611e00565b9650506020611f6589828a01611e3f565b9550506040611f7689828a01611e3f565b9450506060611f8789828a01611e00565b9350506080611f9889828a01611e00565b92505060a0611fa989828a01611e3f565b9150509295509295509295565b60008060008060808587031215611fd057611fcf61242c565b5b6000611fde87828801611e00565b9450506020611fef87828801611e3f565b935050604061200087828801611e3f565b925050606061201187828801611e3f565b91505092959194509250565b6000602082840312156120335761203261242c565b5b600061204184828501611e2a565b91505092915050565b6000602082840312156120605761205f61242c565b5b600061206e84828501611e54565b91505092915050565b612080816123a3565b82525050565b61208f816123a3565b82525050565b61209e816123eb565b82525050565b60006120b1600f8361233c565b91506120bc82612431565b602082019050919050565b60006120d4600283612320565b91506120df8261245a565b602082019050919050565b60006120f7600083612331565b915061210282612483565b600082019050919050565b600061211a601f8361233c565b915061212582612486565b602082019050919050565b604082016000820151612146600085018261215f565b5060208201516121596020850182612077565b50505050565b612168816123e1565b82525050565b612177816123e1565b82525050565b6000612188826120ea565b9150819050919050565b60006040820190506121a76000830185612086565b6121b46020830184612086565b9392505050565b60006060820190506121d06000830186612086565b6121dd6020830185612086565b6121ea604083018461216e565b949350505050565b600060a0820190506122076000830187612086565b6122146020830186612086565b612221604083018561216e565b61222e6060830184612095565b818103608083015261223f816120c7565b905095945050505050565b600060408201905061225f6000830185612086565b61226c602083018461216e565b9392505050565b60006060820190506122886000830186612086565b612295602083018561216e565b6122a2604083018461216e565b949350505050565b600060208201905081810360008301526122c3816120a4565b9050919050565b600060208201905081810360008301526122e38161210d565b9050919050565b60006040820190506122ff6000830184612130565b92915050565b600060208201905061231a600083018461216e565b92915050565b600082825260208201905092915050565b600081905092915050565b600082825260208201905092915050565b6000612358826123e1565b9150612363836123e1565b9250827fffffffffffffffffffffffffffffffffffffffffffffffffffffffffffffffff03821115612398576123976123fd565b5b828201905092915050565b60006123ae826123c1565b9050919050565b60008115159050919050565b600073ffffffffffffffffffffffffffffffffffffffff82169050919050565b6000819050919050565b60006123f6826123e1565b9050919050565b7f4e487b7100000000000000000000000000000000000000000000000000000000600052601160045260246000fd5b600080fd5b7f5472616e73666572206661696c65640000000000000000000000000000000000600082015250565b7f3078000000000000000000000000000000000000000000000000000000000000600082015250565b50565b7f5265656e7472616e637947756172643a207265656e7472616e742063616c6c00600082015250565b6124b8816123a3565b81146124c357600080fd5b50565b6124cf816123b5565b81146124da57600080fd5b50565b6124e6816123e1565b81146124f157600080fd5b5056fea26469706673582212200aaf35a635c9549b208c850e0daaa2aaa0964479cc45c303ae12ec5e11bec46e64736f6c63430008070033",
  "linkReferences": {},
  "deployedLinkReferences": {}
}