{
  "_format": "hh-sol-artifact-1",
  "contractName": "MIKONFT1155",
  "sourceName": "contracts/ERC1155.sol",
  "abi": [
    {
      "inputs": [],
      "stateMutability": "nonpayable",
      "type": "constructor"
    },
    {
      "anonymous": false,
      "inputs": [
        {
          "indexed": true,
          "internalType": "address",
          "name": "account",
          "type": "address"
        },
        {
          "indexed": true,
          "internalType": "address",
          "name": "operator",
          "type": "address"
        },
        {
          "indexed": false,
          "internalType": "bool",
          "name": "approved",
          "type": "bool"
        }
      ],
      "name": "ApprovalForAll",
      "type": "event"
    },
    {
      "anonymous": false,
      "inputs": [
        {
          "indexed": false,
          "internalType": "address",
          "name": "account",
          "type": "address"
        }
      ],
      "name": "Paused",
      "type": "event"
    },
    {
      "anonymous": false,
      "inputs": [
        {
          "indexed": true,
          "internalType": "bytes32",
          "name": "role",
          "type": "bytes32"
        },
        {
          "indexed": true,
          "internalType": "bytes32",
          "name": "previousAdminRole",
          "type": "bytes32"
        },
        {
          "indexed": true,
          "internalType": "bytes32",
          "name": "newAdminRole",
          "type": "bytes32"
        }
      ],
      "name": "RoleAdminChanged",
      "type": "event"
    },
    {
      "anonymous": false,
      "inputs": [
        {
          "indexed": true,
          "internalType": "bytes32",
          "name": "role",
          "type": "bytes32"
        },
        {
          "indexed": true,
          "internalType": "address",
          "name": "account",
          "type": "address"
        },
        {
          "indexed": true,
          "internalType": "address",
          "name": "sender",
          "type": "address"
        }
      ],
      "name": "RoleGranted",
      "type": "event"
    },
    {
      "anonymous": false,
      "inputs": [
        {
          "indexed": true,
          "internalType": "bytes32",
          "name": "role",
          "type": "bytes32"
        },
        {
          "indexed": true,
          "internalType": "address",
          "name": "account",
          "type": "address"
        },
        {
          "indexed": true,
          "internalType": "address",
          "name": "sender",
          "type": "address"
        }
      ],
      "name": "RoleRevoked",
      "type": "event"
    },
    {
      "anonymous": false,
      "inputs": [
        {
          "indexed": true,
          "internalType": "address",
          "name": "operator",
          "type": "address"
        },
        {
          "indexed": true,
          "internalType": "address",
          "name": "from",
          "type": "address"
        },
        {
          "indexed": true,
          "internalType": "address",
          "name": "to",
          "type": "address"
        },
        {
          "indexed": false,
          "internalType": "uint256[]",
          "name": "ids",
          "type": "uint256[]"
        },
        {
          "indexed": false,
          "internalType": "uint256[]",
          "name": "values",
          "type": "uint256[]"
        }
      ],
      "name": "TransferBatch",
      "type": "event"
    },
    {
      "anonymous": false,
      "inputs": [
        {
          "indexed": true,
          "internalType": "address",
          "name": "operator",
          "type": "address"
        },
        {
          "indexed": true,
          "internalType": "address",
          "name": "from",
          "type": "address"
        },
        {
          "indexed": true,
          "internalType": "address",
          "name": "to",
          "type": "address"
        },
        {
          "indexed": false,
          "internalType": "uint256",
          "name": "id",
          "type": "uint256"
        },
        {
          "indexed": false,
          "internalType": "uint256",
          "name": "value",
          "type": "uint256"
        }
      ],
      "name": "TransferSingle",
      "type": "event"
    },
    {
      "anonymous": false,
      "inputs": [
        {
          "indexed": false,
          "internalType": "string",
          "name": "value",
          "type": "string"
        },
        {
          "indexed": true,
          "internalType": "uint256",
          "name": "id",
          "type": "uint256"
        }
      ],
      "name": "URI",
      "type": "event"
    },
    {
      "anonymous": false,
      "inputs": [
        {
          "indexed": false,
          "internalType": "address",
          "name": "account",
          "type": "address"
        }
      ],
      "name": "Unpaused",
      "type": "event"
    },
    {
      "inputs": [],
      "name": "DEFAULT_ADMIN_ROLE",
      "outputs": [
        {
          "internalType": "bytes32",
          "name": "",
          "type": "bytes32"
        }
      ],
      "stateMutability": "view",
      "type": "function"
    },
    {
      "inputs": [],
      "name": "MINTER_ROLE",
      "outputs": [
        {
          "internalType": "bytes32",
          "name": "",
          "type": "bytes32"
        }
      ],
      "stateMutability": "view",
      "type": "function"
    },
    {
      "inputs": [],
      "name": "PAUSER_ROLE",
      "outputs": [
        {
          "internalType": "bytes32",
          "name": "",
          "type": "bytes32"
        }
      ],
      "stateMutability": "view",
      "type": "function"
    },
    {
      "inputs": [],
      "name": "URI_SETTER_ROLE",
      "outputs": [
        {
          "internalType": "bytes32",
          "name": "",
          "type": "bytes32"
        }
      ],
      "stateMutability": "view",
      "type": "function"
    },
    {
      "inputs": [
        {
          "internalType": "address",
          "name": "account",
          "type": "address"
        },
        {
          "internalType": "uint256",
          "name": "id",
          "type": "uint256"
        }
      ],
      "name": "balanceOf",
      "outputs": [
        {
          "internalType": "uint256",
          "name": "",
          "type": "uint256"
        }
      ],
      "stateMutability": "view",
      "type": "function"
    },
    {
      "inputs": [
        {
          "internalType": "address[]",
          "name": "accounts",
          "type": "address[]"
        },
        {
          "internalType": "uint256[]",
          "name": "ids",
          "type": "uint256[]"
        }
      ],
      "name": "balanceOfBatch",
      "outputs": [
        {
          "internalType": "uint256[]",
          "name": "",
          "type": "uint256[]"
        }
      ],
      "stateMutability": "view",
      "type": "function"
    },
    {
      "inputs": [
        {
          "internalType": "address",
          "name": "account",
          "type": "address"
        },
        {
          "internalType": "uint256",
          "name": "id",
          "type": "uint256"
        },
        {
          "internalType": "uint256",
          "name": "value",
          "type": "uint256"
        }
      ],
      "name": "burn",
      "outputs": [],
      "stateMutability": "nonpayable",
      "type": "function"
    },
    {
      "inputs": [
        {
          "internalType": "address",
          "name": "account",
          "type": "address"
        },
        {
          "internalType": "uint256[]",
          "name": "ids",
          "type": "uint256[]"
        },
        {
          "internalType": "uint256[]",
          "name": "values",
          "type": "uint256[]"
        }
      ],
      "name": "burnBatch",
      "outputs": [],
      "stateMutability": "nonpayable",
      "type": "function"
    },
    {
      "inputs": [
        {
          "internalType": "uint256",
          "name": "id",
          "type": "uint256"
        }
      ],
      "name": "exists",
      "outputs": [
        {
          "internalType": "bool",
          "name": "",
          "type": "bool"
        }
      ],
      "stateMutability": "view",
      "type": "function"
    },
    {
      "inputs": [
        {
          "internalType": "bytes32",
          "name": "role",
          "type": "bytes32"
        }
      ],
      "name": "getRoleAdmin",
      "outputs": [
        {
          "internalType": "bytes32",
          "name": "",
          "type": "bytes32"
        }
      ],
      "stateMutability": "view",
      "type": "function"
    },
    {
      "inputs": [
        {
          "internalType": "bytes32",
          "name": "role",
          "type": "bytes32"
        },
        {
          "internalType": "address",
          "name": "account",
          "type": "address"
        }
      ],
      "name": "grantRole",
      "outputs": [],
      "stateMutability": "nonpayable",
      "type": "function"
    },
    {
      "inputs": [
        {
          "internalType": "bytes32",
          "name": "role",
          "type": "bytes32"
        },
        {
          "internalType": "address",
          "name": "account",
          "type": "address"
        }
      ],
      "name": "hasRole",
      "outputs": [
        {
          "internalType": "bool",
          "name": "",
          "type": "bool"
        }
      ],
      "stateMutability": "view",
      "type": "function"
    },
    {
      "inputs": [
        {
          "internalType": "address",
          "name": "account",
          "type": "address"
        },
        {
          "internalType": "address",
          "name": "operator",
          "type": "address"
        }
      ],
      "name": "isApprovedForAll",
      "outputs": [
        {
          "internalType": "bool",
          "name": "",
          "type": "bool"
        }
      ],
      "stateMutability": "view",
      "type": "function"
    },
    {
      "inputs": [
        {
          "internalType": "address",
          "name": "account",
          "type": "address"
        },
        {
          "internalType": "uint256",
          "name": "id",
          "type": "uint256"
        },
        {
          "internalType": "uint256",
          "name": "amount",
          "type": "uint256"
        },
        {
          "internalType": "bytes",
          "name": "data",
          "type": "bytes"
        }
      ],
      "name": "mint",
      "outputs": [],
      "stateMutability": "nonpayable",
      "type": "function"
    },
    {
      "inputs": [
        {
          "internalType": "address",
          "name": "to",
          "type": "address"
        },
        {
          "internalType": "uint256[]",
          "name": "ids",
          "type": "uint256[]"
        },
        {
          "internalType": "uint256[]",
          "name": "amounts",
          "type": "uint256[]"
        },
        {
          "internalType": "bytes",
          "name": "data",
          "type": "bytes"
        }
      ],
      "name": "mintBatch",
      "outputs": [],
      "stateMutability": "nonpayable",
      "type": "function"
    },
    {
      "inputs": [],
      "name": "pause",
      "outputs": [],
      "stateMutability": "nonpayable",
      "type": "function"
    },
    {
      "inputs": [],
      "name": "paused",
      "outputs": [
        {
          "internalType": "bool",
          "name": "",
          "type": "bool"
        }
      ],
      "stateMutability": "view",
      "type": "function"
    },
    {
      "inputs": [
        {
          "internalType": "bytes32",
          "name": "role",
          "type": "bytes32"
        },
        {
          "internalType": "address",
          "name": "account",
          "type": "address"
        }
      ],
      "name": "renounceRole",
      "outputs": [],
      "stateMutability": "nonpayable",
      "type": "function"
    },
    {
      "inputs": [
        {
          "internalType": "bytes32",
          "name": "role",
          "type": "bytes32"
        },
        {
          "internalType": "address",
          "name": "account",
          "type": "address"
        }
      ],
      "name": "revokeRole",
      "outputs": [],
      "stateMutability": "nonpayable",
      "type": "function"
    },
    {
      "inputs": [
        {
          "internalType": "uint256",
          "name": "tokenId",
          "type": "uint256"
        },
        {
          "internalType": "uint256",
          "name": "salePrice",
          "type": "uint256"
        }
      ],
      "name": "royaltyInfo",
      "outputs": [
        {
          "internalType": "address",
          "name": "receiver",
          "type": "address"
        },
        {
          "internalType": "uint256",
          "name": "royaltyAmount",
          "type": "uint256"
        }
      ],
      "stateMutability": "view",
      "type": "function"
    },
    {
      "inputs": [
        {
          "internalType": "address",
          "name": "from",
          "type": "address"
        },
        {
          "internalType": "address",
          "name": "to",
          "type": "address"
        },
        {
          "internalType": "uint256[]",
          "name": "ids",
          "type": "uint256[]"
        },
        {
          "internalType": "uint256[]",
          "name": "amounts",
          "type": "uint256[]"
        },
        {
          "internalType": "bytes",
          "name": "data",
          "type": "bytes"
        }
      ],
      "name": "safeBatchTransferFrom",
      "outputs": [],
      "stateMutability": "nonpayable",
      "type": "function"
    },
    {
      "inputs": [
        {
          "internalType": "address",
          "name": "from",
          "type": "address"
        },
        {
          "internalType": "address",
          "name": "to",
          "type": "address"
        },
        {
          "internalType": "uint256",
          "name": "id",
          "type": "uint256"
        },
        {
          "internalType": "uint256",
          "name": "amount",
          "type": "uint256"
        },
        {
          "internalType": "bytes",
          "name": "data",
          "type": "bytes"
        }
      ],
      "name": "safeTransferFrom",
      "outputs": [],
      "stateMutability": "nonpayable",
      "type": "function"
    },
    {
      "inputs": [
        {
          "internalType": "address",
          "name": "operator",
          "type": "address"
        },
        {
          "internalType": "bool",
          "name": "approved",
          "type": "bool"
        }
      ],
      "name": "setApprovalForAll",
      "outputs": [],
      "stateMutability": "nonpayable",
      "type": "function"
    },
    {
      "inputs": [
        {
          "internalType": "address",
          "name": "newRecipient",
          "type": "address"
        }
      ],
      "name": "setRoyalties",
      "outputs": [],
      "stateMutability": "nonpayable",
      "type": "function"
    },
    {
      "inputs": [
        {
          "internalType": "string",
          "name": "newuri",
          "type": "string"
        }
      ],
      "name": "setURI",
      "outputs": [],
      "stateMutability": "nonpayable",
      "type": "function"
    },
    {
      "inputs": [
        {
          "internalType": "bytes4",
          "name": "interfaceId",
          "type": "bytes4"
        }
      ],
      "name": "supportsInterface",
      "outputs": [
        {
          "internalType": "bool",
          "name": "",
          "type": "bool"
        }
      ],
      "stateMutability": "view",
      "type": "function"
    },
    {
      "inputs": [
        {
          "internalType": "uint256",
          "name": "id",
          "type": "uint256"
        }
      ],
      "name": "totalSupply",
      "outputs": [
        {
          "internalType": "uint256",
          "name": "",
          "type": "uint256"
        }
      ],
      "stateMutability": "view",
      "type": "function"
    },
    {
      "inputs": [],
      "name": "unpause",
      "outputs": [],
      "stateMutability": "nonpayable",
      "type": "function"
    },
    {
      "inputs": [
        {
          "internalType": "uint256",
          "name": "",
          "type": "uint256"
        }
      ],
      "name": "uri",
      "outputs": [
        {
          "internalType": "string",
          "name": "",
          "type": "string"
        }
      ],
      "stateMutability": "view",
      "type": "function"
    }
  ],
  "bytecode": "0x60806040523480156200001157600080fd5b506040518060200160405280600081525062000033816200010060201b60201c565b506000600460006101000a81548160ff021916908315150217905550620000646000801b336200011c60201b60201c565b620000967f7804d923f43a17d325d77e781528e0793b2edd9890ab45fc64efd7b4b427744c336200011c60201b60201c565b620000c87f65d7a28e3265b37a6474929f336521b332c1681b933f6cb9f3376673440d862a336200011c60201b60201c565b620000fa7f9f2df0fed2c77648de5860a4cc508cd0818c85b8b8a1ab4ceeef8d981c8956a6336200011c60201b60201c565b62000396565b80600290805190602001906200011892919062000281565b5050565b6200012e82826200020e60201b60201c565b6200020a5760016003600084815260200190815260200160002060000160008373ffffffffffffffffffffffffffffffffffffffff1673ffffffffffffffffffffffffffffffffffffffff16815260200190815260200160002060006101000a81548160ff021916908315150217905550620001af6200027960201b60201c565b73ffffffffffffffffffffffffffffffffffffffff168173ffffffffffffffffffffffffffffffffffffffff16837f2f8788117e7eff1d82e926ec794901d17c78024a50270940304540a733656f0d60405160405180910390a45b5050565b60006003600084815260200190815260200160002060000160008373ffffffffffffffffffffffffffffffffffffffff1673ffffffffffffffffffffffffffffffffffffffff16815260200190815260200160002060009054906101000a900460ff16905092915050565b600033905090565b8280546200028f9062000331565b90600052602060002090601f016020900481019282620002b35760008555620002ff565b82601f10620002ce57805160ff1916838001178555620002ff565b82800160010185558215620002ff579182015b82811115620002fe578251825591602001919060010190620002e1565b5b5090506200030e919062000312565b5090565b5b808211156200032d57600081600090555060010162000313565b5090565b600060028204905060018216806200034a57607f821691505b6020821081141562000361576200036062000367565b5b50919050565b7f4e487b7100000000000000000000000000000000000000000000000000000000600052602260045260246000fd5b614ccd80620003a66000396000f3fe608060405234801561001057600080fd5b50600436106101ce5760003560e01c80635c975abb11610104578063a22cb465116100a2578063e63ab1e911610071578063e63ab1e914610528578063e985e9c514610546578063f242432a14610576578063f5298aca14610592576101ce565b8063a22cb465146104a2578063bd85b039146104be578063d5391393146104ee578063d547741f1461050c576101ce565b80637f345710116100de5780637f3457101461042c5780638456cb591461044a57806391d1485414610454578063a217fddf14610484576101ce565b80635c975abb146103d65780636b20c454146103f4578063731133e914610410576101ce565b80632a9e63c61161017157806336568abe1161014b57806336568abe146103505780633f4ba83a1461036c5780634e1273f4146103765780634f558e79146103a6576101ce565b80632a9e63c6146102fc5780632eb2c2d6146103185780632f2ff15d14610334576101ce565b80630e89341c116101ad5780630e89341c1461024f5780631f7fdffa1461027f578063248a9ca31461029b5780632a55205a146102cb576101ce565b8062fdd58e146101d357806301ffc9a71461020357806302fe530514610233575b600080fd5b6101ed60048036038101906101e891906134d8565b6105ae565b6040516101fa9190614077565b60405180910390f35b61021d600480360381019061021891906136d3565b610677565b60405161022a9190613dbf565b60405180910390f35b61024d6004803603810190610248919061372d565b610689565b005b61026960048036038101906102649190613776565b6106c0565b6040516102769190613df5565b60405180910390f35b610299600480360381019061029491906133dd565b610754565b005b6102b560048036038101906102b09190613666565b610791565b6040516102c29190613dda565b60405180910390f35b6102e560048036038101906102e091906137a3565b6107b1565b6040516102f3929190613d3d565b60405180910390f35b6103166004803603810190610311919061317f565b6107fc565b005b610332600480360381019061032d91906131ec565b610816565b005b61034e60048036038101906103499190613693565b6108b7565b005b61036a60048036038101906103659190613693565b6108d8565b005b61037461095b565b005b610390600480360381019061038b91906135ee565b610990565b60405161039d9190613d66565b60405180910390f35b6103c060048036038101906103bb9190613776565b610aa9565b6040516103cd9190613dbf565b60405180910390f35b6103de610abd565b6040516103eb9190613dbf565b60405180910390f35b61040e60048036038101906104099190613352565b610ad4565b005b61042a6004803603810190610425919061356b565b610b71565b005b610434610bae565b6040516104419190613dda565b60405180910390f35b610452610bd2565b005b61046e60048036038101906104699190613693565b610c07565b60405161047b9190613dbf565b60405180910390f35b61048c610c72565b6040516104999190613dda565b60405180910390f35b6104bc60048036038101906104b79190613498565b610c79565b005b6104d860048036038101906104d39190613776565b610c8f565b6040516104e59190614077565b60405180910390f35b6104f6610cac565b6040516105039190613dda565b60405180910390f35b61052660048036038101906105219190613693565b610cd0565b005b610530610cf1565b60405161053d9190613dda565b60405180910390f35b610560600480360381019061055b91906131ac565b610d15565b60405161056d9190613dbf565b60405180910390f35b610590600480360381019061058b91906132bb565b610da9565b005b6105ac60048036038101906105a79190613518565b610e4a565b005b60008073ffffffffffffffffffffffffffffffffffffffff168373ffffffffffffffffffffffffffffffffffffffff16141561061f576040517f08c379a000000000000000000000000000000000000000000000000000000000815260040161061690613e97565b60405180910390fd5b60008083815260200190815260200160002060008473ffffffffffffffffffffffffffffffffffffffff1673ffffffffffffffffffffffffffffffffffffffff16815260200190815260200160002054905092915050565b600061068282610ee7565b9050919050565b7f7804d923f43a17d325d77e781528e0793b2edd9890ab45fc64efd7b4b427744c6106b381610f61565b6106bc82610f75565b5050565b6060600280546106cf906143e1565b80601f01602080910402602001604051908101604052809291908181526020018280546106fb906143e1565b80156107485780601f1061071d57610100808354040283529160200191610748565b820191906000526020600020905b81548152906001019060200180831161072b57829003601f168201915b50505050509050919050565b7f9f2df0fed2c77648de5860a4cc508cd0818c85b8b8a1ab4ceeef8d981c8956a661077e81610f61565b61078a85858585610f8f565b5050505050565b600060036000838152602001908152602001600020600101549050919050565b600080600660009054906101000a900473ffffffffffffffffffffffffffffffffffffffff1661271060fa856107e7919061429d565b6107f1919061426c565b915091509250929050565b6000801b61080981610f61565b610812826111bc565b5050565b61081e611270565b73ffffffffffffffffffffffffffffffffffffffff168573ffffffffffffffffffffffffffffffffffffffff16148061086457506108638561085e611270565b610d15565b5b6108a3576040517f08c379a000000000000000000000000000000000000000000000000000000000815260040161089a90613f37565b60405180910390fd5b6108b08585858585611278565b5050505050565b6108c082610791565b6108c981610f61565b6108d3838361159a565b505050565b6108e0611270565b73ffffffffffffffffffffffffffffffffffffffff168173ffffffffffffffffffffffffffffffffffffffff161461094d576040517f08c379a000000000000000000000000000000000000000000000000000000000815260040161094490614057565b60405180910390fd5b610957828261167b565b5050565b7f65d7a28e3265b37a6474929f336521b332c1681b933f6cb9f3376673440d862a61098581610f61565b61098d61175d565b50565b606081518351146109d6576040517f08c379a00000000000000000000000000000000000000000000000000000000081526004016109cd90613ff7565b60405180910390fd5b6000835167ffffffffffffffff8111156109f3576109f2614549565b5b604051908082528060200260200182016040528015610a215781602001602082028036833780820191505090505b50905060005b8451811015610a9e57610a6e858281518110610a4657610a4561451a565b5b6020026020010151858381518110610a6157610a6061451a565b5b60200260200101516105ae565b828281518110610a8157610a8061451a565b5b60200260200101818152505080610a9790614444565b9050610a27565b508091505092915050565b600080610ab583610c8f565b119050919050565b6000600460009054906101000a900460ff16905090565b610adc611270565b73ffffffffffffffffffffffffffffffffffffffff168373ffffffffffffffffffffffffffffffffffffffff161480610b225750610b2183610b1c611270565b610d15565b5b610b61576040517f08c379a0000000000000000000000000000000000000000000000000000000008152600401610b5890613ed7565b60405180910390fd5b610b6c8383836117ff565b505050565b7f9f2df0fed2c77648de5860a4cc508cd0818c85b8b8a1ab4ceeef8d981c8956a6610b9b81610f61565b610ba785858585611ace565b5050505050565b7f7804d923f43a17d325d77e781528e0793b2edd9890ab45fc64efd7b4b427744c81565b7f65d7a28e3265b37a6474929f336521b332c1681b933f6cb9f3376673440d862a610bfc81610f61565b610c04611c7f565b50565b60006003600084815260200190815260200160002060000160008373ffffffffffffffffffffffffffffffffffffffff1673ffffffffffffffffffffffffffffffffffffffff16815260200190815260200160002060009054906101000a900460ff16905092915050565b6000801b81565b610c8b610c84611270565b8383611d22565b5050565b600060056000838152602001908152602001600020549050919050565b7f9f2df0fed2c77648de5860a4cc508cd0818c85b8b8a1ab4ceeef8d981c8956a681565b610cd982610791565b610ce281610f61565b610cec838361167b565b505050565b7f65d7a28e3265b37a6474929f336521b332c1681b933f6cb9f3376673440d862a81565b6000600160008473ffffffffffffffffffffffffffffffffffffffff1673ffffffffffffffffffffffffffffffffffffffff16815260200190815260200160002060008373ffffffffffffffffffffffffffffffffffffffff1673ffffffffffffffffffffffffffffffffffffffff16815260200190815260200160002060009054906101000a900460ff16905092915050565b610db1611270565b73ffffffffffffffffffffffffffffffffffffffff168573ffffffffffffffffffffffffffffffffffffffff161480610df75750610df685610df1611270565b610d15565b5b610e36576040517f08c379a0000000000000000000000000000000000000000000000000000000008152600401610e2d90613ed7565b60405180910390fd5b610e438585858585611e8f565b5050505050565b610e52611270565b73ffffffffffffffffffffffffffffffffffffffff168373ffffffffffffffffffffffffffffffffffffffff161480610e985750610e9783610e92611270565b610d15565b5b610ed7576040517f08c379a0000000000000000000000000000000000000000000000000000000008152600401610ece90613ed7565b60405180910390fd5b610ee283838361212b565b505050565b60007f7965db0b000000000000000000000000000000000000000000000000000000007bffffffffffffffffffffffffffffffffffffffffffffffffffffffff1916827bffffffffffffffffffffffffffffffffffffffffffffffffffffffff19161480610f5a5750610f5982612372565b5b9050919050565b610f7281610f6d611270565b612454565b50565b8060029080519060200190610f8b929190612e42565b5050565b600073ffffffffffffffffffffffffffffffffffffffff168473ffffffffffffffffffffffffffffffffffffffff161415610fff576040517f08c379a0000000000000000000000000000000000000000000000000000000008152600401610ff690614037565b60405180910390fd5b8151835114611043576040517f08c379a000000000000000000000000000000000000000000000000000000000815260040161103a90614017565b60405180910390fd5b600061104d611270565b905061105e816000878787876124f1565b60005b84518110156111175783818151811061107d5761107c61451a565b5b602002602001015160008087848151811061109b5761109a61451a565b5b6020026020010151815260200190815260200160002060008873ffffffffffffffffffffffffffffffffffffffff1673ffffffffffffffffffffffffffffffffffffffff16815260200190815260200160002060008282546110fd9190614216565b92505081905550808061110f90614444565b915050611061565b508473ffffffffffffffffffffffffffffffffffffffff16600073ffffffffffffffffffffffffffffffffffffffff168273ffffffffffffffffffffffffffffffffffffffff167f4a39dc06d4c0dbc64b70af90fd698a233a518aa5d07e595d983b8c0526c8f7fb878760405161118f929190613d88565b60405180910390a46111a68160008787878761254f565b6111b581600087878787612557565b5050505050565b600073ffffffffffffffffffffffffffffffffffffffff168173ffffffffffffffffffffffffffffffffffffffff16141561122c576040517f08c379a000000000000000000000000000000000000000000000000000000000815260040161122390613fb7565b60405180910390fd5b80600660006101000a81548173ffffffffffffffffffffffffffffffffffffffff021916908373ffffffffffffffffffffffffffffffffffffffff16021790555050565b600033905090565b81518351146112bc576040517f08c379a00000000000000000000000000000000000000000000000000000000081526004016112b390614017565b60405180910390fd5b600073ffffffffffffffffffffffffffffffffffffffff168473ffffffffffffffffffffffffffffffffffffffff16141561132c576040517f08c379a000000000000000000000000000000000000000000000000000000000815260040161132390613f17565b60405180910390fd5b6000611336611270565b90506113468187878787876124f1565b60005b84518110156114f75760008582815181106113675761136661451a565b5b6020026020010151905060008583815181106113865761138561451a565b5b60200260200101519050600080600084815260200190815260200160002060008b73ffffffffffffffffffffffffffffffffffffffff1673ffffffffffffffffffffffffffffffffffffffff16815260200190815260200160002054905081811015611427576040517f08c379a000000000000000000000000000000000000000000000000000000000815260040161141e90613f77565b60405180910390fd5b81810360008085815260200190815260200160002060008c73ffffffffffffffffffffffffffffffffffffffff1673ffffffffffffffffffffffffffffffffffffffff168152602001908152602001600020819055508160008085815260200190815260200160002060008b73ffffffffffffffffffffffffffffffffffffffff1673ffffffffffffffffffffffffffffffffffffffff16815260200190815260200160002060008282546114dc9190614216565b92505081905550505050806114f090614444565b9050611349565b508473ffffffffffffffffffffffffffffffffffffffff168673ffffffffffffffffffffffffffffffffffffffff168273ffffffffffffffffffffffffffffffffffffffff167f4a39dc06d4c0dbc64b70af90fd698a233a518aa5d07e595d983b8c0526c8f7fb878760405161156e929190613d88565b60405180910390a461158481878787878761254f565b611592818787878787612557565b505050505050565b6115a48282610c07565b6116775760016003600084815260200190815260200160002060000160008373ffffffffffffffffffffffffffffffffffffffff1673ffffffffffffffffffffffffffffffffffffffff16815260200190815260200160002060006101000a81548160ff02191690831515021790555061161c611270565b73ffffffffffffffffffffffffffffffffffffffff168173ffffffffffffffffffffffffffffffffffffffff16837f2f8788117e7eff1d82e926ec794901d17c78024a50270940304540a733656f0d60405160405180910390a45b5050565b6116858282610c07565b156117595760006003600084815260200190815260200160002060000160008373ffffffffffffffffffffffffffffffffffffffff1673ffffffffffffffffffffffffffffffffffffffff16815260200190815260200160002060006101000a81548160ff0219169083151502179055506116fe611270565b73ffffffffffffffffffffffffffffffffffffffff168173ffffffffffffffffffffffffffffffffffffffff16837ff6391f5c32d9c69d2a47ea670b442974b53935d1edc7fd64eb21e047a839171b60405160405180910390a45b5050565b611765610abd565b6117a4576040517f08c379a000000000000000000000000000000000000000000000000000000000815260040161179b90613e77565b60405180910390fd5b6000600460006101000a81548160ff0219169083151502179055507f5db9ee0a495bf2e6ff9c91a7834c1ba4fdd244a5e8aa4e537bd38aeae4b073aa6117e8611270565b6040516117f59190613c60565b60405180910390a1565b600073ffffffffffffffffffffffffffffffffffffffff168373ffffffffffffffffffffffffffffffffffffffff16141561186f576040517f08c379a000000000000000000000000000000000000000000000000000000000815260040161186690613f57565b60405180910390fd5b80518251146118b3576040517f08c379a00000000000000000000000000000000000000000000000000000000081526004016118aa90614017565b60405180910390fd5b60006118bd611270565b90506118dd818560008686604051806020016040528060008152506124f1565b60005b8351811015611a2a5760008482815181106118fe576118fd61451a565b5b60200260200101519050600084838151811061191d5761191c61451a565b5b60200260200101519050600080600084815260200190815260200160002060008973ffffffffffffffffffffffffffffffffffffffff1673ffffffffffffffffffffffffffffffffffffffff168152602001908152602001600020549050818110156119be576040517f08c379a00000000000000000000000000000000000000000000000000000000081526004016119b590613eb7565b60405180910390fd5b81810360008085815260200190815260200160002060008a73ffffffffffffffffffffffffffffffffffffffff1673ffffffffffffffffffffffffffffffffffffffff168152602001908152602001600020819055505050508080611a2290614444565b9150506118e0565b50600073ffffffffffffffffffffffffffffffffffffffff168473ffffffffffffffffffffffffffffffffffffffff168273ffffffffffffffffffffffffffffffffffffffff167f4a39dc06d4c0dbc64b70af90fd698a233a518aa5d07e595d983b8c0526c8f7fb8686604051611aa2929190613d88565b60405180910390a4611ac88185600086866040518060200160405280600081525061254f565b50505050565b600073ffffffffffffffffffffffffffffffffffffffff168473ffffffffffffffffffffffffffffffffffffffff161415611b3e576040517f08c379a0000000000000000000000000000000000000000000000000000000008152600401611b3590614037565b60405180910390fd5b6000611b48611270565b90506000611b558561273e565b90506000611b628561273e565b9050611b73836000898585896124f1565b8460008088815260200190815260200160002060008973ffffffffffffffffffffffffffffffffffffffff1673ffffffffffffffffffffffffffffffffffffffff1681526020019081526020016000206000828254611bd29190614216565b925050819055508673ffffffffffffffffffffffffffffffffffffffff16600073ffffffffffffffffffffffffffffffffffffffff168473ffffffffffffffffffffffffffffffffffffffff167fc3d58168c5ae7397731d063d5bbf3d657854427343f4c083240f7aacaa2d0f628989604051611c50929190614092565b60405180910390a4611c678360008985858961254f565b611c76836000898989896127b8565b50505050505050565b611c87610abd565b15611cc7576040517f08c379a0000000000000000000000000000000000000000000000000000000008152600401611cbe90613ef7565b60405180910390fd5b6001600460006101000a81548160ff0219169083151502179055507f62e78cea01bee320cd4e420270b5ea74000d11b0c9f74754ebdbfc544b05a258611d0b611270565b604051611d189190613c60565b60405180910390a1565b8173ffffffffffffffffffffffffffffffffffffffff168373ffffffffffffffffffffffffffffffffffffffff161415611d91576040517f08c379a0000000000000000000000000000000000000000000000000000000008152600401611d8890613fd7565b60405180910390fd5b80600160008573ffffffffffffffffffffffffffffffffffffffff1673ffffffffffffffffffffffffffffffffffffffff16815260200190815260200160002060008473ffffffffffffffffffffffffffffffffffffffff1673ffffffffffffffffffffffffffffffffffffffff16815260200190815260200160002060006101000a81548160ff0219169083151502179055508173ffffffffffffffffffffffffffffffffffffffff168373ffffffffffffffffffffffffffffffffffffffff167f17307eab39ab6107e8899845ad3d59bd9653f200f220920489ca2b5937696c3183604051611e829190613dbf565b60405180910390a3505050565b600073ffffffffffffffffffffffffffffffffffffffff168473ffffffffffffffffffffffffffffffffffffffff161415611eff576040517f08c379a0000000000000000000000000000000000000000000000000000000008152600401611ef690613f17565b60405180910390fd5b6000611f09611270565b90506000611f168561273e565b90506000611f238561273e565b9050611f338389898585896124f1565b600080600088815260200190815260200160002060008a73ffffffffffffffffffffffffffffffffffffffff1673ffffffffffffffffffffffffffffffffffffffff16815260200190815260200160002054905085811015611fca576040517f08c379a0000000000000000000000000000000000000000000000000000000008152600401611fc190613f77565b60405180910390fd5b85810360008089815260200190815260200160002060008b73ffffffffffffffffffffffffffffffffffffffff1673ffffffffffffffffffffffffffffffffffffffff168152602001908152602001600020819055508560008089815260200190815260200160002060008a73ffffffffffffffffffffffffffffffffffffffff1673ffffffffffffffffffffffffffffffffffffffff168152602001908152602001600020600082825461207f9190614216565b925050819055508773ffffffffffffffffffffffffffffffffffffffff168973ffffffffffffffffffffffffffffffffffffffff168573ffffffffffffffffffffffffffffffffffffffff167fc3d58168c5ae7397731d063d5bbf3d657854427343f4c083240f7aacaa2d0f628a8a6040516120fc929190614092565b60405180910390a4612112848a8a86868a61254f565b612120848a8a8a8a8a6127b8565b505050505050505050565b600073ffffffffffffffffffffffffffffffffffffffff168373ffffffffffffffffffffffffffffffffffffffff16141561219b576040517f08c379a000000000000000000000000000000000000000000000000000000000815260040161219290613f57565b60405180910390fd5b60006121a5611270565b905060006121b28461273e565b905060006121bf8461273e565b90506121df838760008585604051806020016040528060008152506124f1565b600080600087815260200190815260200160002060008873ffffffffffffffffffffffffffffffffffffffff1673ffffffffffffffffffffffffffffffffffffffff16815260200190815260200160002054905084811015612276576040517f08c379a000000000000000000000000000000000000000000000000000000000815260040161226d90613eb7565b60405180910390fd5b84810360008088815260200190815260200160002060008973ffffffffffffffffffffffffffffffffffffffff1673ffffffffffffffffffffffffffffffffffffffff16815260200190815260200160002081905550600073ffffffffffffffffffffffffffffffffffffffff168773ffffffffffffffffffffffffffffffffffffffff168573ffffffffffffffffffffffffffffffffffffffff167fc3d58168c5ae7397731d063d5bbf3d657854427343f4c083240f7aacaa2d0f628989604051612343929190614092565b60405180910390a46123698488600086866040518060200160405280600081525061254f565b50505050505050565b60007fd9b67a26000000000000000000000000000000000000000000000000000000007bffffffffffffffffffffffffffffffffffffffffffffffffffffffff1916827bffffffffffffffffffffffffffffffffffffffffffffffffffffffff1916148061243d57507f0e89341c000000000000000000000000000000000000000000000000000000007bffffffffffffffffffffffffffffffffffffffffffffffffffffffff1916827bffffffffffffffffffffffffffffffffffffffffffffffffffffffff1916145b8061244d575061244c8261299f565b5b9050919050565b61245e8282610c07565b6124ed576124838173ffffffffffffffffffffffffffffffffffffffff166014612a09565b6124918360001c6020612a09565b6040516020016124a2929190613c26565b6040516020818303038152906040526040517f08c379a00000000000000000000000000000000000000000000000000000000081526004016124e49190613df5565b60405180910390fd5b5050565b6124f9610abd565b15612539576040517f08c379a000000000000000000000000000000000000000000000000000000000815260040161253090613ef7565b60405180910390fd5b612547868686868686612c45565b505050505050565b505050505050565b6125768473ffffffffffffffffffffffffffffffffffffffff16612e17565b15612736578373ffffffffffffffffffffffffffffffffffffffff1663bc197c8187878686866040518663ffffffff1660e01b81526004016125bc959493929190613c7b565b602060405180830381600087803b1580156125d657600080fd5b505af192505050801561260757506040513d601f19601f820116820180604052508101906126049190613700565b60015b6126ad57612613614578565b806308c379a014156126705750612628614b8e565b806126335750612672565b806040517f08c379a00000000000000000000000000000000000000000000000000000000081526004016126679190613df5565b60405180910390fd5b505b6040517f08c379a00000000000000000000000000000000000000000000000000000000081526004016126a490613e17565b60405180910390fd5b63bc197c8160e01b7bffffffffffffffffffffffffffffffffffffffffffffffffffffffff1916817bffffffffffffffffffffffffffffffffffffffffffffffffffffffff191614612734576040517f08c379a000000000000000000000000000000000000000000000000000000000815260040161272b90613e57565b60405180910390fd5b505b505050505050565b60606000600167ffffffffffffffff81111561275d5761275c614549565b5b60405190808252806020026020018201604052801561278b5781602001602082028036833780820191505090505b50905082816000815181106127a3576127a261451a565b5b60200260200101818152505080915050919050565b6127d78473ffffffffffffffffffffffffffffffffffffffff16612e17565b15612997578373ffffffffffffffffffffffffffffffffffffffff1663f23a6e6187878686866040518663ffffffff1660e01b815260040161281d959493929190613ce3565b602060405180830381600087803b15801561283757600080fd5b505af192505050801561286857506040513d601f19601f820116820180604052508101906128659190613700565b60015b61290e57612874614578565b806308c379a014156128d15750612889614b8e565b8061289457506128d3565b806040517f08c379a00000000000000000000000000000000000000000000000000000000081526004016128c89190613df5565b60405180910390fd5b505b6040517f08c379a000000000000000000000000000000000000000000000000000000000815260040161290590613e17565b60405180910390fd5b63f23a6e6160e01b7bffffffffffffffffffffffffffffffffffffffffffffffffffffffff1916817bffffffffffffffffffffffffffffffffffffffffffffffffffffffff191614612995576040517f08c379a000000000000000000000000000000000000000000000000000000000815260040161298c90613e57565b60405180910390fd5b505b505050505050565b60007f01ffc9a7000000000000000000000000000000000000000000000000000000007bffffffffffffffffffffffffffffffffffffffffffffffffffffffff1916827bffffffffffffffffffffffffffffffffffffffffffffffffffffffff1916149050919050565b606060006002836002612a1c919061429d565b612a269190614216565b67ffffffffffffffff811115612a3f57612a3e614549565b5b6040519080825280601f01601f191660200182016040528015612a715781602001600182028036833780820191505090505b5090507f300000000000000000000000000000000000000000000000000000000000000081600081518110612aa957612aa861451a565b5b60200101907effffffffffffffffffffffffffffffffffffffffffffffffffffffffffffff1916908160001a9053507f780000000000000000000000000000000000000000000000000000000000000081600181518110612b0d57612b0c61451a565b5b60200101907effffffffffffffffffffffffffffffffffffffffffffffffffffffffffffff1916908160001a90535060006001846002612b4d919061429d565b612b579190614216565b90505b6001811115612bf7577f3031323334353637383961626364656600000000000000000000000000000000600f861660108110612b9957612b9861451a565b5b1a60f81b828281518110612bb057612baf61451a565b5b60200101907effffffffffffffffffffffffffffffffffffffffffffffffffffffffffffff1916908160001a905350600485901c945080612bf0906143b7565b9050612b5a565b5060008414612c3b576040517f08c379a0000000000000000000000000000000000000000000000000000000008152600401612c3290613e37565b60405180910390fd5b8091505092915050565b612c53868686868686612e3a565b600073ffffffffffffffffffffffffffffffffffffffff168573ffffffffffffffffffffffffffffffffffffffff161415612d055760005b8351811015612d0357828181518110612ca757612ca661451a565b5b602002602001015160056000868481518110612cc657612cc561451a565b5b602002602001015181526020019081526020016000206000828254612ceb9190614216565b9250508190555080612cfc90614444565b9050612c8b565b505b600073ffffffffffffffffffffffffffffffffffffffff168473ffffffffffffffffffffffffffffffffffffffff161415612e0f5760005b8351811015612e0d576000848281518110612d5b57612d5a61451a565b5b602002602001015190506000848381518110612d7a57612d7961451a565b5b6020026020010151905060006005600084815260200190815260200160002054905081811015612ddf576040517f08c379a0000000000000000000000000000000000000000000000000000000008152600401612dd690613f97565b60405180910390fd5b818103600560008581526020019081526020016000208190555050505080612e0690614444565b9050612d3d565b505b505050505050565b6000808273ffffffffffffffffffffffffffffffffffffffff163b119050919050565b505050505050565b828054612e4e906143e1565b90600052602060002090601f016020900481019282612e705760008555612eb7565b82601f10612e8957805160ff1916838001178555612eb7565b82800160010185558215612eb7579182015b82811115612eb6578251825591602001919060010190612e9b565b5b509050612ec49190612ec8565b5090565b5b80821115612ee1576000816000905550600101612ec9565b5090565b6000612ef8612ef3846140e0565b6140bb565b90508083825260208201905082856020860282011115612f1b57612f1a61459f565b5b60005b85811015612f4b5781612f318882613049565b845260208401935060208301925050600181019050612f1e565b5050509392505050565b6000612f68612f638461410c565b6140bb565b90508083825260208201905082856020860282011115612f8b57612f8a61459f565b5b60005b85811015612fbb5781612fa1888261316a565b845260208401935060208301925050600181019050612f8e565b5050509392505050565b6000612fd8612fd384614138565b6140bb565b905082815260208101848484011115612ff457612ff36145a4565b5b612fff848285614375565b509392505050565b600061301a61301584614169565b6140bb565b905082815260208101848484011115613036576130356145a4565b5b613041848285614375565b509392505050565b60008135905061305881614c24565b92915050565b600082601f8301126130735761307261459a565b5b8135613083848260208601612ee5565b91505092915050565b600082601f8301126130a1576130a061459a565b5b81356130b1848260208601612f55565b91505092915050565b6000813590506130c981614c3b565b92915050565b6000813590506130de81614c52565b92915050565b6000813590506130f381614c69565b92915050565b60008151905061310881614c69565b92915050565b600082601f8301126131235761312261459a565b5b8135613133848260208601612fc5565b91505092915050565b600082601f8301126131515761315061459a565b5b8135613161848260208601613007565b91505092915050565b60008135905061317981614c80565b92915050565b600060208284031215613195576131946145ae565b5b60006131a384828501613049565b91505092915050565b600080604083850312156131c3576131c26145ae565b5b60006131d185828601613049565b92505060206131e285828601613049565b9150509250929050565b600080600080600060a08688031215613208576132076145ae565b5b600061321688828901613049565b955050602061322788828901613049565b945050604086013567ffffffffffffffff811115613248576132476145a9565b5b6132548882890161308c565b935050606086013567ffffffffffffffff811115613275576132746145a9565b5b6132818882890161308c565b925050608086013567ffffffffffffffff8111156132a2576132a16145a9565b5b6132ae8882890161310e565b9150509295509295909350565b600080600080600060a086880312156132d7576132d66145ae565b5b60006132e588828901613049565b95505060206132f688828901613049565b94505060406133078882890161316a565b93505060606133188882890161316a565b925050608086013567ffffffffffffffff811115613339576133386145a9565b5b6133458882890161310e565b9150509295509295909350565b60008060006060848603121561336b5761336a6145ae565b5b600061337986828701613049565b935050602084013567ffffffffffffffff81111561339a576133996145a9565b5b6133a68682870161308c565b925050604084013567ffffffffffffffff8111156133c7576133c66145a9565b5b6133d38682870161308c565b9150509250925092565b600080600080608085870312156133f7576133f66145ae565b5b600061340587828801613049565b945050602085013567ffffffffffffffff811115613426576134256145a9565b5b6134328782880161308c565b935050604085013567ffffffffffffffff811115613453576134526145a9565b5b61345f8782880161308c565b925050606085013567ffffffffffffffff8111156134805761347f6145a9565b5b61348c8782880161310e565b91505092959194509250565b600080604083850312156134af576134ae6145ae565b5b60006134bd85828601613049565b92505060206134ce858286016130ba565b9150509250929050565b600080604083850312156134ef576134ee6145ae565b5b60006134fd85828601613049565b925050602061350e8582860161316a565b9150509250929050565b600080600060608486031215613531576135306145ae565b5b600061353f86828701613049565b93505060206135508682870161316a565b92505060406135618682870161316a565b9150509250925092565b60008060008060808587031215613585576135846145ae565b5b600061359387828801613049565b94505060206135a48782880161316a565b93505060406135b58782880161316a565b925050606085013567ffffffffffffffff8111156135d6576135d56145a9565b5b6135e28782880161310e565b91505092959194509250565b60008060408385031215613605576136046145ae565b5b600083013567ffffffffffffffff811115613623576136226145a9565b5b61362f8582860161305e565b925050602083013567ffffffffffffffff8111156136505761364f6145a9565b5b61365c8582860161308c565b9150509250929050565b60006020828403121561367c5761367b6145ae565b5b600061368a848285016130cf565b91505092915050565b600080604083850312156136aa576136a96145ae565b5b60006136b8858286016130cf565b92505060206136c985828601613049565b9150509250929050565b6000602082840312156136e9576136e86145ae565b5b60006136f7848285016130e4565b91505092915050565b600060208284031215613716576137156145ae565b5b6000613724848285016130f9565b91505092915050565b600060208284031215613743576137426145ae565b5b600082013567ffffffffffffffff811115613761576137606145a9565b5b61376d8482850161313c565b91505092915050565b60006020828403121561378c5761378b6145ae565b5b600061379a8482850161316a565b91505092915050565b600080604083850312156137ba576137b96145ae565b5b60006137c88582860161316a565b92505060206137d98582860161316a565b9150509250929050565b60006137ef8383613c08565b60208301905092915050565b613804816142f7565b82525050565b6000613815826141aa565b61381f81856141d8565b935061382a8361419a565b8060005b8381101561385b57815161384288826137e3565b975061384d836141cb565b92505060018101905061382e565b5085935050505092915050565b61387181614309565b82525050565b61388081614315565b82525050565b6000613891826141b5565b61389b81856141e9565b93506138ab818560208601614384565b6138b4816145b3565b840191505092915050565b60006138ca826141c0565b6138d481856141fa565b93506138e4818560208601614384565b6138ed816145b3565b840191505092915050565b6000613903826141c0565b61390d818561420b565b935061391d818560208601614384565b80840191505092915050565b60006139366034836141fa565b9150613941826145d1565b604082019050919050565b60006139596020836141fa565b915061396482614620565b602082019050919050565b600061397c6028836141fa565b915061398782614649565b604082019050919050565b600061399f6014836141fa565b91506139aa82614698565b602082019050919050565b60006139c2602b836141fa565b91506139cd826146c1565b604082019050919050565b60006139e56024836141fa565b91506139f082614710565b604082019050919050565b6000613a086029836141fa565b9150613a138261475f565b604082019050919050565b6000613a2b6010836141fa565b9150613a36826147ae565b602082019050919050565b6000613a4e6025836141fa565b9150613a59826147d7565b604082019050919050565b6000613a716032836141fa565b9150613a7c82614826565b604082019050919050565b6000613a946023836141fa565b9150613a9f82614875565b604082019050919050565b6000613ab7602a836141fa565b9150613ac2826148c4565b604082019050919050565b6000613ada6028836141fa565b9150613ae582614913565b604082019050919050565b6000613afd602c836141fa565b9150613b0882614962565b604082019050919050565b6000613b2060178361420b565b9150613b2b826149b1565b601782019050919050565b6000613b436029836141fa565b9150613b4e826149da565b604082019050919050565b6000613b666029836141fa565b9150613b7182614a29565b604082019050919050565b6000613b896028836141fa565b9150613b9482614a78565b604082019050919050565b6000613bac6021836141fa565b9150613bb782614ac7565b604082019050919050565b6000613bcf60118361420b565b9150613bda82614b16565b601182019050919050565b6000613bf2602f836141fa565b9150613bfd82614b3f565b604082019050919050565b613c118161436b565b82525050565b613c208161436b565b82525050565b6000613c3182613b13565b9150613c3d82856138f8565b9150613c4882613bc2565b9150613c5482846138f8565b91508190509392505050565b6000602082019050613c7560008301846137fb565b92915050565b600060a082019050613c9060008301886137fb565b613c9d60208301876137fb565b8181036040830152613caf818661380a565b90508181036060830152613cc3818561380a565b90508181036080830152613cd78184613886565b90509695505050505050565b600060a082019050613cf860008301886137fb565b613d0560208301876137fb565b613d126040830186613c17565b613d1f6060830185613c17565b8181036080830152613d318184613886565b90509695505050505050565b6000604082019050613d5260008301856137fb565b613d5f6020830184613c17565b9392505050565b60006020820190508181036000830152613d80818461380a565b905092915050565b60006040820190508181036000830152613da2818561380a565b90508181036020830152613db6818461380a565b90509392505050565b6000602082019050613dd46000830184613868565b92915050565b6000602082019050613def6000830184613877565b92915050565b60006020820190508181036000830152613e0f81846138bf565b905092915050565b60006020820190508181036000830152613e3081613929565b9050919050565b60006020820190508181036000830152613e508161394c565b9050919050565b60006020820190508181036000830152613e708161396f565b9050919050565b60006020820190508181036000830152613e9081613992565b9050919050565b60006020820190508181036000830152613eb0816139b5565b9050919050565b60006020820190508181036000830152613ed0816139d8565b9050919050565b60006020820190508181036000830152613ef0816139fb565b9050919050565b60006020820190508181036000830152613f1081613a1e565b9050919050565b60006020820190508181036000830152613f3081613a41565b9050919050565b60006020820190508181036000830152613f5081613a64565b9050919050565b60006020820190508181036000830152613f7081613a87565b9050919050565b60006020820190508181036000830152613f9081613aaa565b9050919050565b60006020820190508181036000830152613fb081613acd565b9050919050565b60006020820190508181036000830152613fd081613af0565b9050919050565b60006020820190508181036000830152613ff081613b36565b9050919050565b6000602082019050818103600083015261401081613b59565b9050919050565b6000602082019050818103600083015261403081613b7c565b9050919050565b6000602082019050818103600083015261405081613b9f565b9050919050565b6000602082019050818103600083015261407081613be5565b9050919050565b600060208201905061408c6000830184613c17565b92915050565b60006040820190506140a76000830185613c17565b6140b46020830184613c17565b9392505050565b60006140c56140d6565b90506140d18282614413565b919050565b6000604051905090565b600067ffffffffffffffff8211156140fb576140fa614549565b5b602082029050602081019050919050565b600067ffffffffffffffff82111561412757614126614549565b5b602082029050602081019050919050565b600067ffffffffffffffff82111561415357614152614549565b5b61415c826145b3565b9050602081019050919050565b600067ffffffffffffffff82111561418457614183614549565b5b61418d826145b3565b9050602081019050919050565b6000819050602082019050919050565b600081519050919050565b600081519050919050565b600081519050919050565b6000602082019050919050565b600082825260208201905092915050565b600082825260208201905092915050565b600082825260208201905092915050565b600081905092915050565b60006142218261436b565b915061422c8361436b565b9250827fffffffffffffffffffffffffffffffffffffffffffffffffffffffffffffffff038211156142615761426061448d565b5b828201905092915050565b60006142778261436b565b91506142828361436b565b925082614292576142916144bc565b5b828204905092915050565b60006142a88261436b565b91506142b38361436b565b9250817fffffffffffffffffffffffffffffffffffffffffffffffffffffffffffffffff04831182151516156142ec576142eb61448d565b5b828202905092915050565b60006143028261434b565b9050919050565b60008115159050919050565b6000819050919050565b60007fffffffff0000000000000000000000000000000000000000000000000000000082169050919050565b600073ffffffffffffffffffffffffffffffffffffffff82169050919050565b6000819050919050565b82818337600083830152505050565b60005b838110156143a2578082015181840152602081019050614387565b838111156143b1576000848401525b50505050565b60006143c28261436b565b915060008214156143d6576143d561448d565b5b600182039050919050565b600060028204905060018216806143f957607f821691505b6020821081141561440d5761440c6144eb565b5b50919050565b61441c826145b3565b810181811067ffffffffffffffff8211171561443b5761443a614549565b5b80604052505050565b600061444f8261436b565b91507fffffffffffffffffffffffffffffffffffffffffffffffffffffffffffffffff8214156144825761448161448d565b5b600182019050919050565b7f4e487b7100000000000000000000000000000000000000000000000000000000600052601160045260246000fd5b7f4e487b7100000000000000000000000000000000000000000000000000000000600052601260045260246000fd5b7f4e487b7100000000000000000000000000000000000000000000000000000000600052602260045260246000fd5b7f4e487b7100000000000000000000000000000000000000000000000000000000600052603260045260246000fd5b7f4e487b7100000000000000000000000000000000000000000000000000000000600052604160045260246000fd5b600060033d11156145975760046000803e6145946000516145c4565b90505b90565b600080fd5b600080fd5b600080fd5b600080fd5b600080fd5b6000601f19601f8301169050919050565b60008160e01c9050919050565b7f455243313135353a207472616e7366657220746f206e6f6e204552433131353560008201527f526563656976657220696d706c656d656e746572000000000000000000000000602082015250565b7f537472696e67733a20686578206c656e67746820696e73756666696369656e74600082015250565b7f455243313135353a204552433131353552656365697665722072656a6563746560008201527f6420746f6b656e73000000000000000000000000000000000000000000000000602082015250565b7f5061757361626c653a206e6f7420706175736564000000000000000000000000600082015250565b7f455243313135353a2062616c616e636520717565727920666f7220746865207a60008201527f65726f2061646472657373000000000000000000000000000000000000000000602082015250565b7f455243313135353a206275726e20616d6f756e7420657863656564732062616c60008201527f616e636500000000000000000000000000000000000000000000000000000000602082015250565b7f455243313135353a2063616c6c6572206973206e6f74206f776e6572206e6f7260008201527f20617070726f7665640000000000000000000000000000000000000000000000602082015250565b7f5061757361626c653a2070617573656400000000000000000000000000000000600082015250565b7f455243313135353a207472616e7366657220746f20746865207a65726f20616460008201527f6472657373000000000000000000000000000000000000000000000000000000602082015250565b7f455243313135353a207472616e736665722063616c6c6572206973206e6f742060008201527f6f776e6572206e6f7220617070726f7665640000000000000000000000000000602082015250565b7f455243313135353a206275726e2066726f6d20746865207a65726f206164647260008201527f6573730000000000000000000000000000000000000000000000000000000000602082015250565b7f455243313135353a20696e73756666696369656e742062616c616e636520666f60008201527f72207472616e7366657200000000000000000000000000000000000000000000602082015250565b7f455243313135353a206275726e20616d6f756e74206578636565647320746f7460008201527f616c537570706c79000000000000000000000000000000000000000000000000602082015250565b7f526f79616c746965733a206e657720726563697069656e74206973207468652060008201527f7a65726f20616464726573730000000000000000000000000000000000000000602082015250565b7f416363657373436f6e74726f6c3a206163636f756e7420000000000000000000600082015250565b7f455243313135353a2073657474696e6720617070726f76616c2073746174757360008201527f20666f722073656c660000000000000000000000000000000000000000000000602082015250565b7f455243313135353a206163636f756e747320616e6420696473206c656e67746860008201527f206d69736d617463680000000000000000000000000000000000000000000000602082015250565b7f455243313135353a2069647320616e6420616d6f756e7473206c656e6774682060008201527f6d69736d61746368000000000000000000000000000000000000000000000000602082015250565b7f455243313135353a206d696e7420746f20746865207a65726f2061646472657360008201527f7300000000000000000000000000000000000000000000000000000000000000602082015250565b7f206973206d697373696e6720726f6c6520000000000000000000000000000000600082015250565b7f416363657373436f6e74726f6c3a2063616e206f6e6c792072656e6f756e636560008201527f20726f6c657320666f722073656c660000000000000000000000000000000000602082015250565b600060443d1015614b9e57614c21565b614ba66140d6565b60043d036004823e80513d602482011167ffffffffffffffff82111715614bce575050614c21565b808201805167ffffffffffffffff811115614bec5750505050614c21565b80602083010160043d038501811115614c09575050505050614c21565b614c1882602001850186614413565b82955050505050505b90565b614c2d816142f7565b8114614c3857600080fd5b50565b614c4481614309565b8114614c4f57600080fd5b50565b614c5b81614315565b8114614c6657600080fd5b50565b614c728161431f565b8114614c7d57600080fd5b50565b614c898161436b565b8114614c9457600080fd5b5056fea2646970667358221220efde4146e8bf16f3f9b77c60a188599f63fc24f8f6cd1aa91679b21a5f5f776364736f6c63430008070033",
  "linkReferences": {},
  "deployedLinkReferences": {}
}